{
  "_format": "hh-sol-artifact-1",
  "contractName": "CommitmentStaking",
  "sourceName": "contracts_src/CommitmentStaking.sol",
  "abi": [
    {
      "inputs": [
        {
          "internalType": "address",
          "name": "_attestationAuthority",
          "type": "address"
        },
        {
          "internalType": "address",
          "name": "_scholarshipPool",
          "type": "address"
        }
      ],
      "stateMutability": "nonpayable",
      "type": "constructor"
    },
    {
      "anonymous": false,
      "inputs": [
        {
          "indexed": true,
          "internalType": "uint256",
          "name": "commitmentId",
          "type": "uint256"
        },
        {
          "indexed": true,
          "internalType": "address",
          "name": "user",
          "type": "address"
        },
        {
          "indexed": false,
          "internalType": "uint256",
          "name": "rewardAmount",
          "type": "uint256"
        }
      ],
      "name": "CommitmentClaimed",
      "type": "event"
    },
    {
      "anonymous": false,
      "inputs": [
        {
          "indexed": true,
          "internalType": "uint256",
          "name": "commitmentId",
          "type": "uint256"
        },
        {
          "indexed": true,
          "internalType": "address",
          "name": "user",
          "type": "address"
        },
        {
          "indexed": false,
          "internalType": "uint256",
          "name": "progress",
          "type": "uint256"
        }
      ],
      "name": "CommitmentCompleted",
      "type": "event"
    },
    {
      "anonymous": false,
      "inputs": [
        {
          "indexed": true,
          "internalType": "uint256",
          "name": "commitmentId",
          "type": "uint256"
        },
        {
          "indexed": true,
          "internalType": "address",
          "name": "user",
          "type": "address"
        },
        {
          "indexed": false,
          "internalType": "uint256",
          "name": "stakeAmount",
          "type": "uint256"
        },
        {
          "indexed": false,
          "internalType": "uint256",
          "name": "targetValue",
          "type": "uint256"
        },
        {
          "indexed": false,
          "internalType": "uint256",
          "name": "deadline",
          "type": "uint256"
        },
        {
          "indexed": false,
          "internalType": "uint256",
          "name": "podId",
          "type": "uint256"
        }
      ],
      "name": "CommitmentCreated",
      "type": "event"
    },
    {
      "anonymous": false,
      "inputs": [
        {
          "indexed": true,
          "internalType": "uint256",
          "name": "commitmentId",
          "type": "uint256"
        },
        {
          "indexed": true,
          "internalType": "address",
          "name": "user",
          "type": "address"
        },
        {
          "indexed": false,
          "internalType": "uint256",
          "name": "penaltyAmount",
          "type": "uint256"
        }
      ],
      "name": "CommitmentFailed",
      "type": "event"
    },
    {
      "anonymous": false,
      "inputs": [
        {
          "indexed": true,
          "internalType": "address",
          "name": "previousOwner",
          "type": "address"
        },
        {
          "indexed": true,
          "internalType": "address",
          "name": "newOwner",
          "type": "address"
        }
      ],
      "name": "OwnershipTransferred",
      "type": "event"
    },
    {
      "anonymous": false,
      "inputs": [
        {
          "indexed": false,
          "internalType": "address",
          "name": "account",
          "type": "address"
        }
      ],
      "name": "Paused",
      "type": "event"
    },
    {
      "anonymous": false,
      "inputs": [
        {
          "indexed": true,
          "internalType": "uint256",
          "name": "podId",
          "type": "uint256"
        },
        {
          "indexed": false,
          "internalType": "string",
          "name": "name",
          "type": "string"
        },
        {
          "indexed": false,
          "internalType": "uint256",
          "name": "stakeAmount",
          "type": "uint256"
        },
        {
          "indexed": false,
          "internalType": "uint256",
          "name": "targetValue",
          "type": "uint256"
        },
        {
          "indexed": false,
          "internalType": "uint256",
          "name": "deadline",
          "type": "uint256"
        }
      ],
      "name": "PodCreated",
      "type": "event"
    },
    {
      "anonymous": false,
      "inputs": [
        {
          "indexed": true,
          "internalType": "uint256",
          "name": "podId",
          "type": "uint256"
        },
        {
          "indexed": true,
          "internalType": "address",
          "name": "member",
          "type": "address"
        },
        {
          "indexed": false,
          "internalType": "uint256",
          "name": "commitmentId",
          "type": "uint256"
        }
      ],
      "name": "PodMemberJoined",
      "type": "event"
    },
    {
      "anonymous": false,
      "inputs": [
        {
          "indexed": true,
          "internalType": "uint256",
          "name": "commitmentId",
          "type": "uint256"
        },
        {
          "indexed": false,
          "internalType": "uint256",
          "name": "progress",
          "type": "uint256"
        }
      ],
      "name": "ProgressUpdated",
      "type": "event"
    },
    {
      "anonymous": false,
      "inputs": [
        {
          "indexed": true,
          "internalType": "address",
          "name": "recipient",
          "type": "address"
        },
        {
          "indexed": false,
          "internalType": "uint256",
          "name": "amount",
          "type": "uint256"
        }
      ],
      "name": "ScholarshipDistributed",
      "type": "event"
    },
    {
      "anonymous": false,
      "inputs": [
        {
          "indexed": false,
          "internalType": "address",
          "name": "account",
          "type": "address"
        }
      ],
      "name": "Unpaused",
      "type": "event"
    },
    {
      "inputs": [],
      "name": "BASIS_POINTS",
      "outputs": [
        {
          "internalType": "uint256",
          "name": "",
          "type": "uint256"
        }
      ],
      "stateMutability": "view",
      "type": "function"
    },
    {
      "inputs": [],
      "name": "attestationAuthority",
      "outputs": [
        {
          "internalType": "address",
          "name": "",
          "type": "address"
        }
      ],
      "stateMutability": "view",
      "type": "function"
    },
    {
      "inputs": [
        {
          "internalType": "uint256",
          "name": "_commitmentId",
          "type": "uint256"
        }
      ],
      "name": "claimReward",
      "outputs": [],
      "stateMutability": "nonpayable",
      "type": "function"
    },
    {
      "inputs": [],
      "name": "commitmentCounter",
      "outputs": [
        {
          "internalType": "uint256",
          "name": "",
          "type": "uint256"
        }
      ],
      "stateMutability": "view",
      "type": "function"
    },
    {
      "inputs": [
        {
          "internalType": "uint256",
          "name": "",
          "type": "uint256"
        }
      ],
      "name": "commitments",
      "outputs": [
        {
          "internalType": "address",
          "name": "user",
          "type": "address"
        },
        {
          "internalType": "uint256",
          "name": "stakeAmount",
          "type": "uint256"
        },
        {
          "internalType": "uint256",
          "name": "targetValue",
          "type": "uint256"
        },
        {
          "internalType": "uint256",
          "name": "currentProgress",
          "type": "uint256"
        },
        {
          "internalType": "uint256",
          "name": "startTime",
          "type": "uint256"
        },
        {
          "internalType": "uint256",
          "name": "deadline",
          "type": "uint256"
        },
        {
          "internalType": "uint256",
          "name": "podId",
          "type": "uint256"
        },
        {
          "internalType": "bool",
          "name": "isActive",
          "type": "bool"
        },
        {
          "internalType": "bool",
          "name": "isCompleted",
          "type": "bool"
        },
        {
          "internalType": "bool",
          "name": "isClaimed",
          "type": "bool"
        }
      ],
      "stateMutability": "view",
      "type": "function"
    },
    {
      "inputs": [
        {
          "internalType": "uint256",
          "name": "_targetValue",
          "type": "uint256"
        },
        {
          "internalType": "uint256",
          "name": "_durationDays",
          "type": "uint256"
        }
      ],
      "name": "createCommitment",
      "outputs": [
        {
          "internalType": "uint256",
          "name": "",
          "type": "uint256"
        }
      ],
      "stateMutability": "payable",
      "type": "function"
    },
    {
      "inputs": [
        {
          "internalType": "string",
          "name": "_name",
          "type": "string"
        },
        {
          "internalType": "uint256",
          "name": "_stakeAmount",
          "type": "uint256"
        },
        {
          "internalType": "uint256",
          "name": "_targetValue",
          "type": "uint256"
        },
        {
          "internalType": "uint256",
          "name": "_durationDays",
          "type": "uint256"
        }
      ],
      "name": "createPod",
      "outputs": [
        {
          "internalType": "uint256",
          "name": "",
          "type": "uint256"
        }
      ],
      "stateMutability": "nonpayable",
      "type": "function"
    },
    {
      "inputs": [
        {
          "internalType": "address",
          "name": "_recipient",
          "type": "address"
        },
        {
          "internalType": "uint256",
          "name": "_amount",
          "type": "uint256"
        }
      ],
      "name": "distributeScholarship",
      "outputs": [],
      "stateMutability": "nonpayable",
      "type": "function"
    },
    {
      "inputs": [
        {
          "internalType": "uint256",
          "name": "_commitmentId",
          "type": "uint256"
        }
      ],
      "name": "failCommitment",
      "outputs": [],
      "stateMutability": "nonpayable",
      "type": "function"
    },
    {
      "inputs": [
        {
          "internalType": "uint256",
          "name": "_commitmentId",
          "type": "uint256"
        }
      ],
      "name": "getCommitment",
      "outputs": [
        {
          "components": [
            {
              "internalType": "address",
              "name": "user",
              "type": "address"
            },
            {
              "internalType": "uint256",
              "name": "stakeAmount",
              "type": "uint256"
            },
            {
              "internalType": "uint256",
              "name": "targetValue",
              "type": "uint256"
            },
            {
              "internalType": "uint256",
              "name": "currentProgress",
              "type": "uint256"
            },
            {
              "internalType": "uint256",
              "name": "startTime",
              "type": "uint256"
            },
            {
              "internalType": "uint256",
              "name": "deadline",
              "type": "uint256"
            },
            {
              "internalType": "uint256",
              "name": "podId",
              "type": "uint256"
            },
            {
              "internalType": "bool",
              "name": "isActive",
              "type": "bool"
            },
            {
              "internalType": "bool",
              "name": "isCompleted",
              "type": "bool"
            },
            {
              "internalType": "bool",
              "name": "isClaimed",
              "type": "bool"
            }
          ],
          "internalType": "struct CommitmentStaking.Commitment",
          "name": "",
          "type": "tuple"
        }
      ],
      "stateMutability": "view",
      "type": "function"
    },
    {
      "inputs": [
        {
          "internalType": "uint256",
          "name": "_podId",
          "type": "uint256"
        }
      ],
      "name": "getPod",
      "outputs": [
        {
          "components": [
            {
              "internalType": "string",
              "name": "name",
              "type": "string"
            },
            {
              "internalType": "uint256",
              "name": "stakeAmount",
              "type": "uint256"
            },
            {
              "internalType": "uint256",
              "name": "targetValue",
              "type": "uint256"
            },
            {
              "internalType": "uint256",
              "name": "deadline",
              "type": "uint256"
            },
            {
              "internalType": "address[]",
              "name": "members",
              "type": "address[]"
            },
            {
              "internalType": "uint256",
              "name": "successfulMembers",
              "type": "uint256"
            },
            {
              "internalType": "uint256",
              "name": "failedMembers",
              "type": "uint256"
            },
            {
              "internalType": "bool",
              "name": "isActive",
              "type": "bool"
            },
            {
              "internalType": "bool",
              "name": "isStarted",
              "type": "bool"
            }
          ],
          "internalType": "struct CommitmentStaking.Pod",
          "name": "",
          "type": "tuple"
        }
      ],
      "stateMutability": "view",
      "type": "function"
    },
    {
      "inputs": [
        {
          "internalType": "uint256",
          "name": "_podId",
          "type": "uint256"
        }
      ],
      "name": "getPodMembers",
      "outputs": [
        {
          "internalType": "address[]",
          "name": "",
          "type": "address[]"
        }
      ],
      "stateMutability": "view",
      "type": "function"
    },
    {
      "inputs": [
        {
          "internalType": "address",
          "name": "_user",
          "type": "address"
        }
      ],
      "name": "getUserCommitments",
      "outputs": [
        {
          "internalType": "uint256[]",
          "name": "",
          "type": "uint256[]"
        }
      ],
      "stateMutability": "view",
      "type": "function"
    },
    {
      "inputs": [
        {
          "internalType": "uint256",
          "name": "_podId",
          "type": "uint256"
        }
      ],
      "name": "joinPod",
      "outputs": [
        {
          "internalType": "uint256",
          "name": "",
          "type": "uint256"
        }
      ],
      "stateMutability": "payable",
      "type": "function"
    },
    {
      "inputs": [],
      "name": "owner",
      "outputs": [
        {
          "internalType": "address",
          "name": "",
          "type": "address"
        }
      ],
      "stateMutability": "view",
      "type": "function"
    },
    {
      "inputs": [],
      "name": "pause",
      "outputs": [],
      "stateMutability": "nonpayable",
      "type": "function"
    },
    {
      "inputs": [],
      "name": "paused",
      "outputs": [
        {
          "internalType": "bool",
          "name": "",
          "type": "bool"
        }
      ],
      "stateMutability": "view",
      "type": "function"
    },
    {
      "inputs": [],
      "name": "podCounter",
      "outputs": [
        {
          "internalType": "uint256",
          "name": "",
          "type": "uint256"
        }
      ],
      "stateMutability": "view",
      "type": "function"
    },
    {
      "inputs": [
        {
          "internalType": "uint256",
          "name": "",
          "type": "uint256"
        },
        {
          "internalType": "address",
          "name": "",
          "type": "address"
        }
      ],
      "name": "podMemberships",
      "outputs": [
        {
          "internalType": "bool",
          "name": "",
          "type": "bool"
        }
      ],
      "stateMutability": "view",
      "type": "function"
    },
    {
      "inputs": [
        {
          "internalType": "uint256",
          "name": "",
          "type": "uint256"
        }
      ],
      "name": "pods",
      "outputs": [
        {
          "internalType": "string",
          "name": "name",
          "type": "string"
        },
        {
          "internalType": "uint256",
          "name": "stakeAmount",
          "type": "uint256"
        },
        {
          "internalType": "uint256",
          "name": "targetValue",
          "type": "uint256"
        },
        {
          "internalType": "uint256",
          "name": "deadline",
          "type": "uint256"
        },
        {
          "internalType": "uint256",
          "name": "successfulMembers",
          "type": "uint256"
        },
        {
          "internalType": "uint256",
          "name": "failedMembers",
          "type": "uint256"
        },
        {
          "internalType": "bool",
          "name": "isActive",
          "type": "bool"
        },
        {
          "internalType": "bool",
          "name": "isStarted",
          "type": "bool"
        }
      ],
      "stateMutability": "view",
      "type": "function"
    },
    {
      "inputs": [],
      "name": "renounceOwnership",
      "outputs": [],
      "stateMutability": "nonpayable",
      "type": "function"
    },
    {
      "inputs": [],
      "name": "rewardMultiplier",
      "outputs": [
        {
          "internalType": "uint256",
          "name": "",
          "type": "uint256"
        }
      ],
      "stateMutability": "view",
      "type": "function"
    },
    {
      "inputs": [],
      "name": "scholarshipPool",
      "outputs": [
        {
          "internalType": "address",
          "name": "",
          "type": "address"
        }
      ],
      "stateMutability": "view",
      "type": "function"
    },
    {
      "inputs": [
        {
          "internalType": "address",
          "name": "_newAuthority",
          "type": "address"
        }
      ],
      "name": "setAttestationAuthority",
      "outputs": [],
      "stateMutability": "nonpayable",
      "type": "function"
    },
    {
      "inputs": [
        {
          "internalType": "uint256",
          "name": "_newMultiplier",
          "type": "uint256"
        }
      ],
      "name": "setRewardMultiplier",
      "outputs": [],
      "stateMutability": "nonpayable",
      "type": "function"
    },
    {
      "inputs": [
        {
          "internalType": "address",
          "name": "_newPool",
          "type": "address"
        }
      ],
      "name": "setScholarshipPool",
      "outputs": [],
      "stateMutability": "nonpayable",
      "type": "function"
    },
    {
      "inputs": [
        {
          "internalType": "uint256",
          "name": "_podId",
          "type": "uint256"
        }
      ],
      "name": "startPod",
      "outputs": [],
      "stateMutability": "nonpayable",
      "type": "function"
    },
    {
      "inputs": [],
      "name": "totalScholarshipFunds",
      "outputs": [
        {
          "internalType": "uint256",
          "name": "",
          "type": "uint256"
        }
      ],
      "stateMutability": "view",
      "type": "function"
    },
    {
      "inputs": [
        {
          "internalType": "address",
          "name": "newOwner",
          "type": "address"
        }
      ],
      "name": "transferOwnership",
      "outputs": [],
      "stateMutability": "nonpayable",
      "type": "function"
    },
    {
      "inputs": [],
      "name": "unpause",
      "outputs": [],
      "stateMutability": "nonpayable",
      "type": "function"
    },
    {
      "inputs": [
        {
          "internalType": "uint256",
          "name": "_commitmentId",
          "type": "uint256"
        },
        {
          "internalType": "uint256",
          "name": "_progress",
          "type": "uint256"
        },
        {
          "internalType": "bytes32",
          "name": "_attestationHash",
          "type": "bytes32"
        },
        {
          "internalType": "bytes",
          "name": "_signature",
          "type": "bytes"
        }
      ],
      "name": "updateProgress",
      "outputs": [],
      "stateMutability": "nonpayable",
      "type": "function"
    },
    {
      "inputs": [
        {
          "internalType": "bytes32",
          "name": "",
          "type": "bytes32"
        }
      ],
      "name": "usedAttestations",
      "outputs": [
        {
          "internalType": "bool",
          "name": "",
          "type": "bool"
        }
      ],
      "stateMutability": "view",
      "type": "function"
    },
    {
      "inputs": [
        {
          "internalType": "address",
          "name": "",
          "type": "address"
        },
        {
          "internalType": "uint256",
          "name": "",
          "type": "uint256"
        }
      ],
      "name": "userCommitments",
      "outputs": [
        {
          "internalType": "uint256",
          "name": "",
          "type": "uint256"
        }
      ],
      "stateMutability": "view",
      "type": "function"
    },
    {
      "stateMutability": "payable",
      "type": "receive"
    }
  ],
  "bytecode": "0x6080604052606e600d553480156200001657600080fd5b5060405162002f8338038062002f838339810160408190526200003991620001a5565b620000443362000138565b600180556002805460ff191690556001600160a01b038216620000ae5760405162461bcd60e51b815260206004820152601d60248201527f496e76616c6964206174746573746174696f6e20617574686f7269747900000060448201526064015b60405180910390fd5b6001600160a01b038116620001065760405162461bcd60e51b815260206004820152601860248201527f496e76616c6964207363686f6c61727368697020706f6f6c00000000000000006044820152606401620000a5565b600980546001600160a01b039384166001600160a01b031991821617909155600b8054929093169116179055620001dd565b600080546001600160a01b038381166001600160a01b0319831681178455604051919092169283917f8be0079c531659141344cd1fd0a4f28419497f9722a3daafe3b4186f6b6457e09190a35050565b80516001600160a01b0381168114620001a057600080fd5b919050565b60008060408385031215620001b957600080fd5b620001c48362000188565b9150620001d46020840162000188565b90509250929050565b612d9680620001ed6000396000f3fe6080604052600436106101f25760003560e01c8063791776081161010d578063ad5c63f2116100a0578063d861643c1161006f578063d861643c14610668578063da9ea9fc14610688578063e1f1c4a7146106bc578063e35ca6e4146106d1578063f2fde38b146106f157600080fd5b8063ad5c63f2146105f5578063ae169a5014610615578063af18ce7214610635578063b7676b2a1461065557600080fd5b80639a546848116100dc5780639a546848146105725780639bd285e5146105925780639d64a2a5146105b25780639f91592a146105df57600080fd5b806379177608146104f15780637baee70d146105075780638456cb591461053f5780638da5cb5b1461055457600080fd5b806349ce8997116101855780636a93ee0f116101545780636a93ee0f146104795780636b84abc8146104a65780636f2c590a146104c6578063715018a6146104dc57600080fd5b806349ce8997146103295780635a553572146104045780635c975abb1461043457806369bcdb7d1461044c57600080fd5b806324e687b6116101c157806324e687b61461027c57806331091d7a146102c757806337fc835c146102f45780633f4ba83a1461031457600080fd5b806302175248146101fe5780630bd075a114610224578063232e03b71461024657806323e281cf1461026657600080fd5b366101f957005b600080fd5b61021161020c366004612671565b610711565b6040519081526020015b60405180910390f35b34801561023057600080fd5b5061024461023f366004612671565b610b5a565b005b34801561025257600080fd5b506102446102613660046126a1565b610bba565b34801561027257600080fd5b5061021160045481565b34801561028857600080fd5b506102b76102973660046126c3565b600860209081526000928352604080842090915290825290205460ff1681565b604051901515815260200161021b565b3480156102d357600080fd5b506102e76102e23660046126a1565b610c2c565b60405161021b91906126ef565b34801561030057600080fd5b5061024461030f3660046127bf565b610c98565b34801561032057600080fd5b5061024461102d565b34801561033557600080fd5b506103aa610344366004612671565b6003602081905260009182526040909120805460018201546002830154938301546004840154600585015460068601546007909601546001600160a01b0390951696939593949293919290919060ff80821691610100810482169162010000909104168a565b604080516001600160a01b03909b168b5260208b0199909952978901969096526060880194909452608087019290925260a086015260c0850152151560e0840152151561010083015215156101208201526101400161021b565b34801561041057600080fd5b506102b761041f366004612671565b600a6020526000908152604090205460ff1681565b34801561044057600080fd5b5060025460ff166102b7565b34801561045857600080fd5b5061046c610467366004612671565b61103f565b60405161021b919061282d565b34801561048557600080fd5b50610499610494366004612671565b61113f565b60405161021b919061293a565b3480156104b257600080fd5b506102446104c13660046129d2565b6112f7565b3480156104d257600080fd5b50610211600d5481565b3480156104e857600080fd5b50610244611462565b3480156104fd57600080fd5b50610211600c5481565b34801561051357600080fd5b50600b54610527906001600160a01b031681565b6040516001600160a01b03909116815260200161021b565b34801561054b57600080fd5b50610244611474565b34801561056057600080fd5b506000546001600160a01b0316610527565b34801561057e57600080fd5b5061021161058d3660046129d2565b611484565b34801561059e57600080fd5b506102116105ad3660046129fc565b6114b5565b3480156105be57600080fd5b506105d26105cd366004612671565b611729565b60405161021b9190612a64565b3480156105eb57600080fd5b5061021160065481565b34801561060157600080fd5b506102446106103660046126a1565b611797565b34801561062157600080fd5b50610244610630366004612671565b611809565b34801561064157600080fd5b50610244610650366004612671565b611a48565b610211610663366004612a77565b611d13565b34801561067457600080fd5b50600954610527906001600160a01b031681565b34801561069457600080fd5b506106a86106a3366004612671565b612091565b60405161021b989796959493929190612a99565b3480156106c857600080fd5b50610211606481565b3480156106dd57600080fd5b506102446106ec366004612671565b612162565b3480156106fd57600080fd5b5061024461070c3660046126a1565b61226d565b600061071b6122e3565b61072361233c565b6000828152600560205260409020600781015460ff1661077b5760405162461bcd60e51b815260206004820152600e60248201526d506f64206e6f742061637469766560901b60448201526064015b60405180910390fd5b6007810154610100900460ff16156107cb5760405162461bcd60e51b8152602060048201526013602482015272141bd908185b1c9958591e481cdd185c9d1959606a1b6044820152606401610772565b806001015434146108175760405162461bcd60e51b8152602060048201526016602482015275125b98dbdc9c9958dd081cdd185ad948185b5bdd5b9d60521b6044820152606401610772565b600083815260086020908152604080832033845290915290205460ff16156108725760405162461bcd60e51b815260206004820152600e60248201526d105b1c9958591e481a5b881c1bd960921b6044820152606401610772565b600480546000918261088383612afe565b919050559050604051806101400160405280336001600160a01b03168152602001348152602001836002015481526020016000815260200142815260200183600301548152602001858152602001600115158152602001600015158152602001600015158152506003600083815260200190815260200160002060008201518160000160006101000a8154816001600160a01b0302191690836001600160a01b031602179055506020820151816001015560408201518160020155606082015181600301556080820151816004015560a0820151816005015560c0820151816006015560e08201518160070160006101000a81548160ff0219169083151502179055506101008201518160070160016101000a81548160ff0219169083151502179055506101208201518160070160026101000a81548160ff02191690831515021790555090505081600401339080600181540180825580915050600190039060005260206000200160009091909190916101000a8154816001600160a01b0302191690836001600160a01b031602179055506001600860008681526020019081526020016000206000336001600160a01b03166001600160a01b0316815260200190815260200160002060006101000a81548160ff02191690831515021790555060076000336001600160a01b03166001600160a01b03168152602001908152602001600020819080600181540180825580915050600190039060005260206000200160009091909190915055336001600160a01b0316847f03bb409c12e2fd24e3a96849974a625e47a47ea88d558ab3438e191b542ab3db83604051610aed91815260200190565b60405180910390a36002820154600383015460408051348152602081019390935282015260608101859052339082907fabfd8c27a5b4e4f451b0183a6f3583e0eca147890d1889b50d6f5bd0cda2291d9060800160405180910390a3915050610b5560018055565b919050565b610b62612382565b60648110158015610b74575060c88111155b610bb55760405162461bcd60e51b815260206004820152601260248201527124b73b30b634b21036bab63a34b83634b2b960711b6044820152606401610772565b600d55565b610bc2612382565b6001600160a01b038116610c0a5760405162461bcd60e51b815260206004820152600f60248201526e496e76616c6964206164647265737360881b6044820152606401610772565b600980546001600160a01b0319166001600160a01b0392909216919091179055565b6001600160a01b038116600090815260076020908152604091829020805483518184028101840190945280845260609392830182828015610c8c57602002820191906000526020600020905b815481526020019060010190808311610c78575b50505050509050919050565b610ca06122e3565b6000848152600360205260409020600781015460ff16610cd25760405162461bcd60e51b815260040161077290612b17565b6007810154610100900460ff1615610d2c5760405162461bcd60e51b815260206004820152601c60248201527f436f6d6d69746d656e7420616c726561647920636f6d706c65746564000000006044820152606401610772565b8060050154421115610d805760405162461bcd60e51b815260206004820152601a60248201527f436f6d6d69746d656e7420646561646c696e65207061737365640000000000006044820152606401610772565b6000838152600a602052604090205460ff1615610ddf5760405162461bcd60e51b815260206004820152601860248201527f4174746573746174696f6e20616c7265616479207573656400000000000000006044820152606401610772565b8060020154841115610e335760405162461bcd60e51b815260206004820152601d60248201527f50726f67726573732063616e6e6f7420657863656564207461726765740000006044820152606401610772565b805460408051602080820189905260609390931b6bffffffffffffffffffffffff191681830152605481018790526074808201879052825180830390910181526094820183528051908401207f19457468657265756d205369676e6564204d6573736167653a0a33320000000060b483015260d08083018290528351808403909101815260f090920190925280519201919091206009546001600160a01b0316610edd82866123dc565b6001600160a01b031614610f295760405162461bcd60e51b815260206004820152601360248201527224b73b30b634b21030ba3a32b9ba30ba34b7b760691b6044820152606401610772565b6000858152600a60205260409020805460ff191660011790556003830186905560028301548610610fe15760078301805461ff00191661010017905582546040516001600160a01b039091169088907f33f3ba6ea8021e86f3d13b1094665a06a7ece080a19c828f7edfc3c990f9a77190610fa7908a815260200190565b60405180910390a3600683015415610fe15760068301546000908152600560208190526040822001805491610fdb83612afe565b91905055505b867f5872cdf71af29d433728d329d247d308a6b6c7c2b51cca3f43624e687a812d358760405161101391815260200190565b60405180910390a250505061102760018055565b50505050565b611035612382565b61103d61245b565b565b6110a460405180610140016040528060006001600160a01b031681526020016000815260200160008152602001600081526020016000815260200160008152602001600081526020016000151581526020016000151581526020016000151581525090565b5060009081526003602081815260409283902083516101408101855281546001600160a01b0316815260018201549281019290925260028101549382019390935290820154606082015260048201546080820152600582015460a0820152600682015460c082015260079091015460ff808216151560e084015261010080830482161515908401526201000090910416151561012082015290565b611192604051806101200160405280606081526020016000815260200160008152602001600081526020016060815260200160008152602001600081526020016000151581526020016000151581525090565b60008281526005602052604090819020815161012081019092528054829082906111bb90612b46565b80601f01602080910402602001604051908101604052809291908181526020018280546111e790612b46565b80156112345780601f1061120957610100808354040283529160200191611234565b820191906000526020600020905b81548152906001019060200180831161121757829003601f168201915b50505050508152602001600182015481526020016002820154815260200160038201548152602001600482018054806020026020016040519081016040528092919081815260200182805480156112b457602002820191906000526020600020905b81546001600160a01b03168152600190910190602001808311611296575b5050509183525050600582015460208201526006820154604082015260079091015460ff8082161515606084015261010090910416151560809091015292915050565b6112ff612382565b6113076122e3565b600c548111156113595760405162461bcd60e51b815260206004820152601e60248201527f496e73756666696369656e74207363686f6c6172736869702066756e647300006044820152606401610772565b80600c600082825461136b9190612b80565b90915550506040516000906001600160a01b0384169083908381818185875af1925050503d80600081146113bb576040519150601f19603f3d011682016040523d82523d6000602084013e6113c0565b606091505b50509050806114115760405162461bcd60e51b815260206004820152601f60248201527f5363686f6c61727368697020646973747269627574696f6e206661696c6564006044820152606401610772565b826001600160a01b03167f1d2788fd54c2190f6a9cf3a2d08aea45c458f13cfd6d1f9306ec0dc3331ed9468360405161144c91815260200190565b60405180910390a25061145e60018055565b5050565b61146a612382565b61103d60006124ad565b61147c612382565b61103d6124fd565b600760205281600052604060002081815481106114a057600080fd5b90600052602060002001600091509150505481565b60006114bf61233c565b662386f26fc1000084101580156114de5750670de0b6b3a76400008411155b6115215760405162461bcd60e51b8152602060048201526014602482015273125b9d985b1a59081cdd185ad948185b5bdd5b9d60621b6044820152606401610772565b600083116115415760405162461bcd60e51b815260040161077290612b93565b600082116115915760405162461bcd60e51b815260206004820152601f60248201527f4475726174696f6e206d7573742062652067726561746572207468616e2030006044820152606401610772565b60068054600091826115a283612afe565b90915550905060006115b78462015180612bd6565b6115c19042612bed565b9050604051806101200160405280888152602001878152602001868152602001828152602001600067ffffffffffffffff81111561160157611601612733565b60405190808252806020026020018201604052801561162a578160200160208202803683370190505b5081526000602080830182905260408084018390526001606085015260809093018290528582526005905220815181906116649082612c4f565b50602082810151600183015560408301516002830155606083015160038301556080830151805161169b92600485019201906125f7565b5060a0820151600582015560c0820151600682015560e0820151600790910180546101009384015161ffff1990911692151561ff0019169290921791151590920217905560405182907fa9056b4580a5a7571f8e9170f1c6f237de7149b2d75c3f43682d2d3d8c0c4f2d90611717908a908a908a908790612d0f565b60405180910390a25095945050505050565b600081815260056020908152604091829020600401805483518184028101840190945280845260609392830182828015610c8c57602002820191906000526020600020905b81546001600160a01b0316815260019091019060200180831161176e5750505050509050919050565b61179f612382565b6001600160a01b0381166117e75760405162461bcd60e51b815260206004820152600f60248201526e496e76616c6964206164647265737360881b6044820152606401610772565b600b80546001600160a01b0319166001600160a01b0392909216919091179055565b6118116122e3565b600081815260036020526040902080546001600160a01b0316331461186f5760405162461bcd60e51b81526020600482015260146024820152732737ba1031b7b6b6b4ba36b2b73a1037bbb732b960611b6044820152606401610772565b6007810154610100900460ff166118c85760405162461bcd60e51b815260206004820152601860248201527f436f6d6d69746d656e74206e6f7420636f6d706c6574656400000000000000006044820152606401610772565b600781015462010000900460ff16156119155760405162461bcd60e51b815260206004820152600f60248201526e105b1c9958591e4818db185a5b5959608a1b6044820152606401610772565b600781015460ff166119395760405162461bcd60e51b815260040161077290612b17565b60078101805462ff00ff191662010000179055600d5460018201546000916064916119649190612bd6565b61196e9190612d3e565b604051909150600090339083908381818185875af1925050503d80600081146119b3576040519150601f19603f3d011682016040523d82523d6000602084013e6119b8565b606091505b5050905080611a025760405162461bcd60e51b815260206004820152601660248201527514995dd85c99081d1c985b9cd9995c8819985a5b195960521b6044820152606401610772565b604051828152339085907fb4a321c89b763b3efe1370d968150a75428064af18b766a8df6c35487cb301ce9060200160405180910390a3505050611a4560018055565b50565b600081815260036020526040902080546001600160a01b0316331480611a7857506000546001600160a01b031633145b611ab55760405162461bcd60e51b815260206004820152600e60248201526d139bdd08185d5d1a1bdc9a5e995960921b6044820152606401610772565b600781015460ff16611ad95760405162461bcd60e51b815260040161077290612b17565b6007810154610100900460ff1615611b335760405162461bcd60e51b815260206004820152601c60248201527f436f6d6d69746d656e7420616c726561647920636f6d706c65746564000000006044820152606401610772565b80600501544211611b7c5760405162461bcd60e51b8152602060048201526013602482015272111958591b1a5b99481b9bdd081c185cdcd959606a1b6044820152606401610772565b600781015462010000900460ff1615611bc95760405162461bcd60e51b815260206004820152600f60248201526e105b1c9958591e4818db185a5b5959608a1b6044820152606401610772565b60078101805460ff191690556001810154600c8054829190600090611bef908490612bed565b9091555050600b546040516000916001600160a01b03169083908381818185875af1925050503d8060008114611c41576040519150601f19603f3d011682016040523d82523d6000602084013e611c46565b606091505b5050905080611c975760405162461bcd60e51b815260206004820152601b60248201527f5363686f6c617273686970207472616e73666572206661696c656400000000006044820152606401610772565b600683015415611cca576006808401546000908152600560205260408120909101805491611cc483612afe565b91905055505b82546040518381526001600160a01b039091169085907ff9d843db48c884d3344f81d5183cf1f18ab0026eee77a9271a393f3f6d97fba69060200160405180910390a350505050565b6000611d1d6122e3565b611d2561233c565b60003411611d815760405162461bcd60e51b815260206004820152602360248201527f5374616b6520616d6f756e74206d75737420626520677265617465722074686160448201526206e20360ec1b6064820152608401610772565b60008311611da15760405162461bcd60e51b815260040161077290612b93565b60008211611df15760405162461bcd60e51b815260206004820152601f60248201527f4475726174696f6e206d7573742062652067726561746572207468616e2030006044820152606401610772565b662386f26fc100003410158015611e105750670de0b6b3a76400003411155b611e675760405162461bcd60e51b815260206004820152602260248201527f5374616b65206d757374206265206265747765656e20302e303120616e64203160448201526102e360f41b6064820152608401610772565b6004805460009182611e7883612afe565b9091555090506000611e8d8462015180612bd6565b611e979042612bed565b9050604051806101400160405280336001600160a01b031681526020013481526020018681526020016000815260200142815260200182815260200160008152602001600115158152602001600015158152602001600015158152506003600084815260200190815260200160002060008201518160000160006101000a8154816001600160a01b0302191690836001600160a01b031602179055506020820151816001015560408201518160020155606082015181600301556080820151816004015560a0820151816005015560c0820151816006015560e08201518160070160006101000a81548160ff0219169083151502179055506101008201518160070160016101000a81548160ff0219169083151502179055506101208201518160070160026101000a81548160ff02191690831515021790555090505060076000336001600160a01b03166001600160a01b03168152602001908152602001600020829080600181540180825580915050600190039060005260206000200160009091909190915055336001600160a01b0316827fabfd8c27a5b4e4f451b0183a6f3583e0eca147890d1889b50d6f5bd0cda2291d3488856000604051612077949392919093845260208401929092526040830152606082015260800190565b60405180910390a350905061208b60018055565b92915050565b6005602052600090815260409020805481906120ac90612b46565b80601f01602080910402602001604051908101604052809291908181526020018280546120d890612b46565b80156121255780601f106120fa57610100808354040283529160200191612125565b820191906000526020600020905b81548152906001019060200180831161210857829003601f168201915b5050506001840154600285015460038601546005870154600688015460079098015496979396929550909350919060ff8082169161010090041688565b6000818152600560205260409020600781015460ff166121b55760405162461bcd60e51b815260206004820152600e60248201526d506f64206e6f742061637469766560901b6044820152606401610772565b6007810154610100900460ff16156122055760405162461bcd60e51b8152602060048201526013602482015272141bd908185b1c9958591e481cdd185c9d1959606a1b6044820152606401610772565b60048101546002111561225a5760405162461bcd60e51b815260206004820152601760248201527f4e656564206174206c656173742032206d656d626572730000000000000000006044820152606401610772565b600701805461ff00191661010017905550565b612275612382565b6001600160a01b0381166122da5760405162461bcd60e51b815260206004820152602660248201527f4f776e61626c653a206e6577206f776e657220697320746865207a65726f206160448201526564647265737360d01b6064820152608401610772565b611a45816124ad565b6002600154036123355760405162461bcd60e51b815260206004820152601f60248201527f5265656e7472616e637947756172643a207265656e7472616e742063616c6c006044820152606401610772565b6002600155565b60025460ff161561103d5760405162461bcd60e51b815260206004820152601060248201526f14185d5cd8589b194e881c185d5cd95960821b6044820152606401610772565b6000546001600160a01b0316331461103d5760405162461bcd60e51b815260206004820181905260248201527f4f776e61626c653a2063616c6c6572206973206e6f7420746865206f776e65726044820152606401610772565b6000806000806123eb8561253a565b6040805160008152602081018083528b905260ff8316918101919091526060810184905260808101839052929550909350915060019060a0016020604051602081039080840390855afa158015612446573d6000803e3d6000fd5b5050604051601f190151979650505050505050565b6124636125ae565b6002805460ff191690557f5db9ee0a495bf2e6ff9c91a7834c1ba4fdd244a5e8aa4e537bd38aeae4b073aa335b6040516001600160a01b03909116815260200160405180910390a1565b600080546001600160a01b038381166001600160a01b0319831681178455604051919092169283917f8be0079c531659141344cd1fd0a4f28419497f9722a3daafe3b4186f6b6457e09190a35050565b61250561233c565b6002805460ff191660011790557f62e78cea01bee320cd4e420270b5ea74000d11b0c9f74754ebdbfc544b05a2586124903390565b600080600083516041146125905760405162461bcd60e51b815260206004820152601860248201527f496e76616c6964207369676e6174757265206c656e67746800000000000000006044820152606401610772565b50505060208101516040820151606090920151909260009190911a90565b60025460ff1661103d5760405162461bcd60e51b815260206004820152601460248201527314185d5cd8589b194e881b9bdd081c185d5cd95960621b6044820152606401610772565b82805482825590600052602060002090810192821561264c579160200282015b8281111561264c57825182546001600160a01b0319166001600160a01b03909116178255602090920191600190910190612617565b5061265892915061265c565b5090565b5b80821115612658576000815560010161265d565b60006020828403121561268357600080fd5b5035919050565b80356001600160a01b0381168114610b5557600080fd5b6000602082840312156126b357600080fd5b6126bc8261268a565b9392505050565b600080604083850312156126d657600080fd5b823591506126e66020840161268a565b90509250929050565b6020808252825182820181905260009190848201906040850190845b818110156127275783518352928401929184019160010161270b565b50909695505050505050565b634e487b7160e01b600052604160045260246000fd5b600067ffffffffffffffff8084111561276457612764612733565b604051601f8501601f19908116603f0116810190828211818310171561278c5761278c612733565b816040528093508581528686860111156127a557600080fd5b858560208301376000602087830101525050509392505050565b600080600080608085870312156127d557600080fd5b843593506020850135925060408501359150606085013567ffffffffffffffff81111561280157600080fd5b8501601f8101871361281257600080fd5b61282187823560208401612749565b91505092959194509250565b81516001600160a01b0316815261014081016020830151602083015260408301516040830152606083015160608301526080830151608083015260a083015160a083015260c083015160c083015260e083015161288e60e084018215159052565b5061010083810151151590830152610120928301511515929091019190915290565b6000815180845260005b818110156128d6576020818501810151868301820152016128ba565b506000602082860101526020601f19601f83011685010191505092915050565b600081518084526020808501945080840160005b8381101561292f5781516001600160a01b03168752958201959082019060010161290a565b509495945050505050565b60208152600082516101208060208501526129596101408501836128b0565b91506020850151604085015260408501516060850152606085015160808501526080850151601f198584030160a086015261299483826128f6565b92505060a085015160c085015260c085015160e085015260e08501516101006129c08187018315159052565b90950151151593019290925250919050565b600080604083850312156129e557600080fd5b6129ee8361268a565b946020939093013593505050565b60008060008060808587031215612a1257600080fd5b843567ffffffffffffffff811115612a2957600080fd5b8501601f81018713612a3a57600080fd5b612a4987823560208401612749565b97602087013597506040870135966060013595509350505050565b6020815260006126bc60208301846128f6565b60008060408385031215612a8a57600080fd5b50508035926020909101359150565b6000610100808352612aad8184018c6128b0565b602084019a909a52505060408101969096526060860194909452608085019290925260a0840152151560c0830152151560e090910152919050565b634e487b7160e01b600052601160045260246000fd5b600060018201612b1057612b10612ae8565b5060010190565b602080825260159082015274436f6d6d69746d656e74206e6f742061637469766560581b604082015260600190565b600181811c90821680612b5a57607f821691505b602082108103612b7a57634e487b7160e01b600052602260045260246000fd5b50919050565b8181038181111561208b5761208b612ae8565b60208082526023908201527f5461726765742076616c7565206d75737420626520677265617465722074686160408201526206e20360ec1b606082015260800190565b808202811582820484141761208b5761208b612ae8565b8082018082111561208b5761208b612ae8565b601f821115612c4a57600081815260208120601f850160051c81016020861015612c275750805b601f850160051c820191505b81811015612c4657828155600101612c33565b5050505b505050565b815167ffffffffffffffff811115612c6957612c69612733565b612c7d81612c778454612b46565b84612c00565b602080601f831160018114612cb25760008415612c9a5750858301515b600019600386901b1c1916600185901b178555612c46565b600085815260208120601f198616915b82811015612ce157888601518255948401946001909101908401612cc2565b5085821015612cff5787850151600019600388901b60f8161c191681555b5050505050600190811b01905550565b608081526000612d2260808301876128b0565b6020830195909552506040810192909252606090910152919050565b600082612d5b57634e487b7160e01b600052601260045260246000fd5b50049056fea26469706673582212203c441b1319f0354ac7676d08e68fe4b361a9fe6a03d14cb98e4db46f41d50a5664736f6c63430008140033",
  "linkReferences": {},
  "deployedLinkReferences": {}
}