{
  "_format": "hh-sol-artifact-1",
  "contractName": "ReputationSBT",
  "sourceName": "contracts_src/ReputationSBT.sol",
  "abi": [
    {
      "inputs": [],
      "stateMutability": "nonpayable",
      "type": "constructor"
    },
    {
      "anonymous": false,
      "inputs": [
        {
          "indexed": true,
          "internalType": "address",
          "name": "owner",
          "type": "address"
        },
        {
          "indexed": true,
          "internalType": "address",
          "name": "approved",
          "type": "address"
        },
        {
          "indexed": true,
          "internalType": "uint256",
          "name": "tokenId",
          "type": "uint256"
        }
      ],
      "name": "Approval",
      "type": "event"
    },
    {
      "anonymous": false,
      "inputs": [
        {
          "indexed": true,
          "internalType": "address",
          "name": "owner",
          "type": "address"
        },
        {
          "indexed": true,
          "internalType": "address",
          "name": "operator",
          "type": "address"
        },
        {
          "indexed": false,
          "internalType": "bool",
          "name": "approved",
          "type": "bool"
        }
      ],
      "name": "ApprovalForAll",
      "type": "event"
    },
    {
      "anonymous": false,
      "inputs": [
        {
          "indexed": true,
          "internalType": "uint256",
          "name": "tokenId",
          "type": "uint256"
        },
        {
          "indexed": true,
          "internalType": "address",
          "name": "tutor",
          "type": "address"
        },
        {
          "indexed": false,
          "internalType": "uint256",
          "name": "sessionId",
          "type": "uint256"
        },
        {
          "indexed": false,
          "internalType": "string",
          "name": "badgeType",
          "type": "string"
        }
      ],
      "name": "BadgeMinted",
      "type": "event"
    },
    {
      "anonymous": false,
      "inputs": [
        {
          "indexed": false,
          "internalType": "string",
          "name": "badgeType",
          "type": "string"
        },
        {
          "indexed": false,
          "internalType": "string",
          "name": "metadataURI",
          "type": "string"
        }
      ],
      "name": "BadgeTypeAdded",
      "type": "event"
    },
    {
      "anonymous": false,
      "inputs": [
        {
          "indexed": true,
          "internalType": "address",
          "name": "previousOwner",
          "type": "address"
        },
        {
          "indexed": true,
          "internalType": "address",
          "name": "newOwner",
          "type": "address"
        }
      ],
      "name": "OwnershipTransferred",
      "type": "event"
    },
    {
      "anonymous": false,
      "inputs": [
        {
          "indexed": true,
          "internalType": "address",
          "name": "from",
          "type": "address"
        },
        {
          "indexed": true,
          "internalType": "address",
          "name": "to",
          "type": "address"
        },
        {
          "indexed": true,
          "internalType": "uint256",
          "name": "tokenId",
          "type": "uint256"
        }
      ],
      "name": "Transfer",
      "type": "event"
    },
    {
      "inputs": [
        {
          "internalType": "address",
          "name": "",
          "type": "address"
        },
        {
          "internalType": "uint256",
          "name": "",
          "type": "uint256"
        }
      ],
      "name": "approve",
      "outputs": [],
      "stateMutability": "nonpayable",
      "type": "function"
    },
    {
      "inputs": [
        {
          "internalType": "string",
          "name": "",
          "type": "string"
        }
      ],
      "name": "badgeTypeMetadata",
      "outputs": [
        {
          "internalType": "string",
          "name": "",
          "type": "string"
        }
      ],
      "stateMutability": "view",
      "type": "function"
    },
    {
      "inputs": [
        {
          "internalType": "uint256",
          "name": "",
          "type": "uint256"
        }
      ],
      "name": "badges",
      "outputs": [
        {
          "internalType": "uint256",
          "name": "tokenId",
          "type": "uint256"
        },
        {
          "internalType": "address",
          "name": "tutor",
          "type": "address"
        },
        {
          "internalType": "uint256",
          "name": "sessionId",
          "type": "uint256"
        },
        {
          "internalType": "string",
          "name": "badgeType",
          "type": "string"
        },
        {
          "internalType": "uint256",
          "name": "mintedAt",
          "type": "uint256"
        },
        {
          "internalType": "string",
          "name": "metadataURI",
          "type": "string"
        }
      ],
      "stateMutability": "view",
      "type": "function"
    },
    {
      "inputs": [
        {
          "internalType": "address",
          "name": "owner",
          "type": "address"
        }
      ],
      "name": "balanceOf",
      "outputs": [
        {
          "internalType": "uint256",
          "name": "",
          "type": "uint256"
        }
      ],
      "stateMutability": "view",
      "type": "function"
    },
    {
      "inputs": [
        {
          "internalType": "uint256",
          "name": "_tokenId",
          "type": "uint256"
        }
      ],
      "name": "burnBadge",
      "outputs": [],
      "stateMutability": "nonpayable",
      "type": "function"
    },
    {
      "inputs": [],
      "name": "escrowContract",
      "outputs": [
        {
          "internalType": "address",
          "name": "",
          "type": "address"
        }
      ],
      "stateMutability": "view",
      "type": "function"
    },
    {
      "inputs": [
        {
          "internalType": "uint256",
          "name": "_tokenId",
          "type": "uint256"
        }
      ],
      "name": "exists",
      "outputs": [
        {
          "internalType": "bool",
          "name": "",
          "type": "bool"
        }
      ],
      "stateMutability": "view",
      "type": "function"
    },
    {
      "inputs": [
        {
          "internalType": "uint256",
          "name": "tokenId",
          "type": "uint256"
        }
      ],
      "name": "getApproved",
      "outputs": [
        {
          "internalType": "address",
          "name": "",
          "type": "address"
        }
      ],
      "stateMutability": "view",
      "type": "function"
    },
    {
      "inputs": [
        {
          "internalType": "uint256",
          "name": "_tokenId",
          "type": "uint256"
        }
      ],
      "name": "getBadge",
      "outputs": [
        {
          "components": [
            {
              "internalType": "uint256",
              "name": "tokenId",
              "type": "uint256"
            },
            {
              "internalType": "address",
              "name": "tutor",
              "type": "address"
            },
            {
              "internalType": "uint256",
              "name": "sessionId",
              "type": "uint256"
            },
            {
              "internalType": "string",
              "name": "badgeType",
              "type": "string"
            },
            {
              "internalType": "uint256",
              "name": "mintedAt",
              "type": "uint256"
            },
            {
              "internalType": "string",
              "name": "metadataURI",
              "type": "string"
            }
          ],
          "internalType": "struct ReputationSBT.Badge",
          "name": "",
          "type": "tuple"
        }
      ],
      "stateMutability": "view",
      "type": "function"
    },
    {
      "inputs": [
        {
          "internalType": "address",
          "name": "_tutor",
          "type": "address"
        }
      ],
      "name": "getTotalBadges",
      "outputs": [
        {
          "internalType": "uint256",
          "name": "",
          "type": "uint256"
        }
      ],
      "stateMutability": "view",
      "type": "function"
    },
    {
      "inputs": [
        {
          "internalType": "address",
          "name": "_tutor",
          "type": "address"
        },
        {
          "internalType": "string",
          "name": "_badgeType",
          "type": "string"
        }
      ],
      "name": "getTutorBadgeCount",
      "outputs": [
        {
          "internalType": "uint256",
          "name": "",
          "type": "uint256"
        }
      ],
      "stateMutability": "view",
      "type": "function"
    },
    {
      "inputs": [
        {
          "internalType": "address",
          "name": "_tutor",
          "type": "address"
        }
      ],
      "name": "getTutorBadges",
      "outputs": [
        {
          "internalType": "uint256[]",
          "name": "",
          "type": "uint256[]"
        }
      ],
      "stateMutability": "view",
      "type": "function"
    },
    {
      "inputs": [
        {
          "internalType": "address",
          "name": "_tutor",
          "type": "address"
        }
      ],
      "name": "getTutorReputation",
      "outputs": [
        {
          "internalType": "uint256",
          "name": "totalBadges",
          "type": "uint256"
        },
        {
          "internalType": "uint256",
          "name": "essayFeedback",
          "type": "uint256"
        },
        {
          "internalType": "uint256",
          "name": "speakingPractice",
          "type": "uint256"
        },
        {
          "internalType": "uint256",
          "name": "readingTutor",
          "type": "uint256"
        },
        {
          "internalType": "uint256",
          "name": "writingCoach",
          "type": "uint256"
        }
      ],
      "stateMutability": "view",
      "type": "function"
    },
    {
      "inputs": [
        {
          "internalType": "address",
          "name": "owner",
          "type": "address"
        },
        {
          "internalType": "address",
          "name": "operator",
          "type": "address"
        }
      ],
      "name": "isApprovedForAll",
      "outputs": [
        {
          "internalType": "bool",
          "name": "",
          "type": "bool"
        }
      ],
      "stateMutability": "view",
      "type": "function"
    },
    {
      "inputs": [
        {
          "internalType": "address",
          "name": "_tutor",
          "type": "address"
        },
        {
          "internalType": "uint256",
          "name": "_sessionId",
          "type": "uint256"
        }
      ],
      "name": "mintReputation",
      "outputs": [],
      "stateMutability": "nonpayable",
      "type": "function"
    },
    {
      "inputs": [
        {
          "internalType": "address",
          "name": "_tutor",
          "type": "address"
        },
        {
          "internalType": "uint256",
          "name": "_sessionId",
          "type": "uint256"
        },
        {
          "internalType": "string",
          "name": "_badgeType",
          "type": "string"
        }
      ],
      "name": "mintReputationWithType",
      "outputs": [],
      "stateMutability": "nonpayable",
      "type": "function"
    },
    {
      "inputs": [],
      "name": "name",
      "outputs": [
        {
          "internalType": "string",
          "name": "",
          "type": "string"
        }
      ],
      "stateMutability": "view",
      "type": "function"
    },
    {
      "inputs": [],
      "name": "nextTokenId",
      "outputs": [
        {
          "internalType": "uint256",
          "name": "",
          "type": "uint256"
        }
      ],
      "stateMutability": "view",
      "type": "function"
    },
    {
      "inputs": [],
      "name": "owner",
      "outputs": [
        {
          "internalType": "address",
          "name": "",
          "type": "address"
        }
      ],
      "stateMutability": "view",
      "type": "function"
    },
    {
      "inputs": [
        {
          "internalType": "uint256",
          "name": "tokenId",
          "type": "uint256"
        }
      ],
      "name": "ownerOf",
      "outputs": [
        {
          "internalType": "address",
          "name": "",
          "type": "address"
        }
      ],
      "stateMutability": "view",
      "type": "function"
    },
    {
      "inputs": [],
      "name": "renounceOwnership",
      "outputs": [],
      "stateMutability": "nonpayable",
      "type": "function"
    },
    {
      "inputs": [
        {
          "internalType": "address",
          "name": "from",
          "type": "address"
        },
        {
          "internalType": "address",
          "name": "to",
          "type": "address"
        },
        {
          "internalType": "uint256",
          "name": "tokenId",
          "type": "uint256"
        }
      ],
      "name": "safeTransferFrom",
      "outputs": [],
      "stateMutability": "nonpayable",
      "type": "function"
    },
    {
      "inputs": [
        {
          "internalType": "address",
          "name": "from",
          "type": "address"
        },
        {
          "internalType": "address",
          "name": "to",
          "type": "address"
        },
        {
          "internalType": "uint256",
          "name": "tokenId",
          "type": "uint256"
        },
        {
          "internalType": "bytes",
          "name": "data",
          "type": "bytes"
        }
      ],
      "name": "safeTransferFrom",
      "outputs": [],
      "stateMutability": "nonpayable",
      "type": "function"
    },
    {
      "inputs": [
        {
          "internalType": "address",
          "name": "",
          "type": "address"
        },
        {
          "internalType": "bool",
          "name": "",
          "type": "bool"
        }
      ],
      "name": "setApprovalForAll",
      "outputs": [],
      "stateMutability": "nonpayable",
      "type": "function"
    },
    {
      "inputs": [
        {
          "internalType": "string",
          "name": "_badgeType",
          "type": "string"
        },
        {
          "internalType": "string",
          "name": "_metadataURI",
          "type": "string"
        }
      ],
      "name": "setBadgeTypeMetadata",
      "outputs": [],
      "stateMutability": "nonpayable",
      "type": "function"
    },
    {
      "inputs": [
        {
          "internalType": "address",
          "name": "_escrow",
          "type": "address"
        }
      ],
      "name": "setEscrowContract",
      "outputs": [],
      "stateMutability": "nonpayable",
      "type": "function"
    },
    {
      "inputs": [
        {
          "internalType": "bytes4",
          "name": "interfaceId",
          "type": "bytes4"
        }
      ],
      "name": "supportsInterface",
      "outputs": [
        {
          "internalType": "bool",
          "name": "",
          "type": "bool"
        }
      ],
      "stateMutability": "view",
      "type": "function"
    },
    {
      "inputs": [],
      "name": "symbol",
      "outputs": [
        {
          "internalType": "string",
          "name": "",
          "type": "string"
        }
      ],
      "stateMutability": "view",
      "type": "function"
    },
    {
      "inputs": [
        {
          "internalType": "uint256",
          "name": "_tokenId",
          "type": "uint256"
        }
      ],
      "name": "tokenURI",
      "outputs": [
        {
          "internalType": "string",
          "name": "",
          "type": "string"
        }
      ],
      "stateMutability": "view",
      "type": "function"
    },
    {
      "inputs": [
        {
          "internalType": "address",
          "name": "from",
          "type": "address"
        },
        {
          "internalType": "address",
          "name": "to",
          "type": "address"
        },
        {
          "internalType": "uint256",
          "name": "tokenId",
          "type": "uint256"
        }
      ],
      "name": "transferFrom",
      "outputs": [],
      "stateMutability": "nonpayable",
      "type": "function"
    },
    {
      "inputs": [
        {
          "internalType": "address",
          "name": "newOwner",
          "type": "address"
        }
      ],
      "name": "transferOwnership",
      "outputs": [],
      "stateMutability": "nonpayable",
      "type": "function"
    },
    {
      "inputs": [
        {
          "internalType": "address",
          "name": "",
          "type": "address"
        },
        {
          "internalType": "string",
          "name": "",
          "type": "string"
        }
      ],
      "name": "tutorBadgeCount",
      "outputs": [
        {
          "internalType": "uint256",
          "name": "",
          "type": "uint256"
        }
      ],
      "stateMutability": "view",
      "type": "function"
    },
    {
      "inputs": [
        {
          "internalType": "address",
          "name": "",
          "type": "address"
        },
        {
          "internalType": "uint256",
          "name": "",
          "type": "uint256"
        }
      ],
      "name": "tutorBadges",
      "outputs": [
        {
          "internalType": "uint256",
          "name": "",
          "type": "uint256"
        }
      ],
      "stateMutability": "view",
      "type": "function"
    }
  ],
  "bytecode": "0x608060405260016007553480156200001657600080fd5b506040518060400160405280601981526020017f4564754c6561726e205475746f722052657075746174696f6e000000000000008152506040518060400160405280600681526020016504544555245560d41b81525081600090816200007d919062000353565b5060016200008c828262000353565b505050620000a9620000a36200025860201b60201c565b6200025c565b604080518082018252601681527f697066733a2f2f516d4573736179466565646261636b00000000000000000000602082015281516d65737361795f666565646261636b60901b8152600c600e820152915191829003602e019091209062000112908262000353565b50604080518082018252601981527f697066733a2f2f516d537065616b696e675072616374696365000000000000006020820152815170737065616b696e675f707261637469636560781b8152600c6011820152915191829003603101909120906200017f908262000353565b50604080518082018252601581527f697066733a2f2f516d52656164696e675475746f720000000000000000000000602082015281516c3932b0b234b733afba3aba37b960991b8152600c600d820152915191829003602d0190912090620001e8908262000353565b50604080518082018252601581527f697066733a2f2f516d57726974696e67436f6163680000000000000000000000602082015281516c0eee4d2e8d2dccebec6dec2c6d609b1b8152600c600d820152915191829003602d019091209062000251908262000353565b506200041f565b3390565b600680546001600160a01b038381166001600160a01b0319831681179093556040519116919082907f8be0079c531659141344cd1fd0a4f28419497f9722a3daafe3b4186f6b6457e090600090a35050565b634e487b7160e01b600052604160045260246000fd5b600181811c90821680620002d957607f821691505b602082108103620002fa57634e487b7160e01b600052602260045260246000fd5b50919050565b601f8211156200034e57600081815260208120601f850160051c81016020861015620003295750805b601f850160051c820191505b818110156200034a5782815560010162000335565b5050505b505050565b81516001600160401b038111156200036f576200036f620002ae565b6200038781620003808454620002c4565b8462000300565b602080601f831160018114620003bf5760008415620003a65750858301515b600019600386901b1c1916600185901b1785556200034a565b600085815260208120601f198616915b82811015620003f057888601518255948401946001909101908401620003cf565b50858210156200040f5787850151600019600388901b60f8161c191681555b5050505050600190811b01905550565b612a07806200042f6000396000f3fe608060405234801561001057600080fd5b50600436106101fb5760003560e01c8063799e00531161011a578063a0ba7734116100ad578063c87b56dd1161007c578063c87b56dd1461059c578063e42a96e7146105af578063e985e9c5146105c2578063f2fde38b146105fe578063f42375b51461061157600080fd5b8063a0ba773414610555578063a22cb46514610568578063b460a60e14610576578063b88d4fde1461058957600080fd5b8063943ccab8116100e9578063943ccab81461050257806395aa91c61461051557806395d89b411461052857806398e36d8b1461053057600080fd5b8063799e0053146104885780637d72972a146104a85780638d838622146104d15780638da5cb5b146104f157600080fd5b806343e46914116101925780636352211e116101615780636352211e1461045157806370a0823114610464578063715018a61461047757806375794a3c1461047f57600080fd5b806343e46914146104055780634c46192c146104185780634f558e791461042b57806355de28ae1461043e57600080fd5b8063095ea7b3116101ce578063095ea7b31461038057806310a672da1461039557806323b872dd146103df57806342842e0e146103f257600080fd5b806301ffc9a71461020057806302c530a11461022857806306fdde0314610340578063081812fc14610355575b600080fd5b61021361020e36600461215c565b610624565b60405190151581526020015b60405180910390f35b61031861023636600461219c565b6001600160a01b03166000818152600a6020908152604080832054600b80845282852083516d65737361795f666565646261636b60901b8152600e8101829052845190819003602e0181205488885283875270737065616b696e675f707261637469636560781b8252601182018390528551918290036031018220548989528488526c3932b0b234b733afba3aba37b960991b8352600d808401859052875193849003602d9081018520549b909a52949097526c0eee4d2e8d2dccebec6dec2c6d609b1b82529281019190915292519283900390940190912054909492939192565b604080519586526020860194909452928401919091526060830152608082015260a00161021f565b610348610676565b60405161021f9190612207565b61036861036336600461221a565b610708565b6040516001600160a01b03909116815260200161021f565b61039361038e366004612233565b61072f565b005b6103d16103a3366004612309565b600b602090815260009283526040909220815180830184018051928152908401929093019190912091525481565b60405190815260200161021f565b6103936103ed366004612357565b61077c565b610393610400366004612357565b6107b2565b6103d1610413366004612309565b6107cd565b6103d1610426366004612233565b61080a565b61021361043936600461221a565b61083b565b61039361044c36600461221a565b610846565b61036861045f36600461221a565b610b99565b6103d161047236600461219c565b610bf9565b610393610c7f565b6103d160075481565b61049b61049636600461219c565b610c93565b60405161021f9190612393565b6103d16104b636600461219c565b6001600160a01b03166000908152600a602052604090205490565b6104e46104df36600461221a565b610cff565b60405161021f91906123d7565b6006546001600160a01b0316610368565b610393610510366004612233565b610f09565b610393610523366004612449565b6111f6565b6103486112f5565b61054361053e36600461221a565b611304565b60405161021f969594939291906124a3565b6103936105633660046124f5565b611455565b61039361038e36600461254c565b610348610584366004612588565b611734565b6103936105973660046125bd565b6117d9565b6103486105aa36600461221a565b611811565b600854610368906001600160a01b031681565b6102136105d0366004612639565b6001600160a01b03918216600090815260056020908152604080832093909416825291909152205460ff1690565b61039361060c36600461219c565b6118f6565b61039361061f36600461219c565b61196f565b60006001600160e01b031982166380ac58cd60e01b148061065557506001600160e01b03198216635b5e139f60e01b145b8061067057506301ffc9a760e01b6001600160e01b03198316145b92915050565b6060600080546106859061266c565b80601f01602080910402602001604051908101604052809291908181526020018280546106b19061266c565b80156106fe5780601f106106d3576101008083540402835291602001916106fe565b820191906000526020600020905b8154815290600101906020018083116106e157829003601f168201915b5050505050905090565b6000610713826119e1565b506000908152600460205260409020546001600160a01b031690565b60405162461bcd60e51b815260206004820181905260248201527f536f756c626f756e643a20417070726f76616c73206e6f7420616c6c6f77656460448201526064015b60405180910390fd5b6107863382611a31565b6107a25760405162461bcd60e51b8152600401610773906126a6565b6107ad838383611ab0565b505050565b6107ad838383604051806020016040528060008152506117d9565b6001600160a01b0382166000908152600b602052604080822090516107f39084906126f3565b908152602001604051809103902054905092915050565b600a602052816000526040600020818154811061082657600080fd5b90600052602060002001600091509150505481565b600061067082611c21565b61084e611c3e565b61085781611c21565b61089a5760405162461bcd60e51b815260206004820152601460248201527310985919d948191bd95cc81b9bdd08195e1a5cdd60621b6044820152606401610773565b6000818152600960209081526040808320815160c0810183528154815260018201546001600160a01b0316938101939093526002810154918301919091526003810180546060840191906108ed9061266c565b80601f01602080910402602001604051908101604052809291908181526020018280546109199061266c565b80156109665780601f1061093b57610100808354040283529160200191610966565b820191906000526020600020905b81548152906001019060200180831161094957829003601f168201915b50505050508152602001600482015481526020016005820180546109899061266c565b80601f01602080910402602001604051908101604052809291908181526020018280546109b59061266c565b8015610a025780601f106109d757610100808354040283529160200191610a02565b820191906000526020600020905b8154815290600101906020018083116109e557829003601f168201915b5050505050815250509050600b600082602001516001600160a01b03166001600160a01b031681526020019081526020016000208160600151604051610a4891906126f3565b9081526040519081900360200190208054906000610a6583612725565b90915550506020808201516001600160a01b03166000908152600a90915260408120905b8154811015610b3d5783828281548110610aa557610aa561273c565b906000526020600020015403610b2b5781548290610ac590600190612752565b81548110610ad557610ad561273c565b9060005260206000200154828281548110610af257610af261273c565b906000526020600020018190555081805480610b1057610b10612765565b60019003818190600052602060002001600090559055610b3d565b80610b358161277b565b915050610a89565b5060008381526009602052604081208181556001810180546001600160a01b03191690556002810182905590610b7660038301826120f8565b6004820160009055600582016000610b8e91906120f8565b50506107ad83611c98565b6000818152600260205260408120546001600160a01b0316806106705760405162461bcd60e51b8152602060048201526018602482015277115490cdcc8c4e881a5b9d985b1a59081d1bdad95b88125160421b6044820152606401610773565b60006001600160a01b038216610c635760405162461bcd60e51b815260206004820152602960248201527f4552433732313a2061646472657373207a65726f206973206e6f7420612076616044820152683634b21037bbb732b960b91b6064820152608401610773565b506001600160a01b031660009081526003602052604090205490565b610c87611c3e565b610c916000611d3c565b565b6001600160a01b0381166000908152600a6020908152604091829020805483518184028101840190945280845260609392830182828015610cf357602002820191906000526020600020905b815481526020019060010190808311610cdf575b50505050509050919050565b610d416040518060c001604052806000815260200160006001600160a01b03168152602001600081526020016060815260200160008152602001606081525090565b610d4a82611c21565b610d8d5760405162461bcd60e51b815260206004820152601460248201527310985919d948191bd95cc81b9bdd08195e1a5cdd60621b6044820152606401610773565b600082815260096020908152604091829020825160c0810184528154815260018201546001600160a01b031692810192909252600281015492820192909252600382018054919291606084019190610de49061266c565b80601f0160208091040260200160405190810160405280929190818152602001828054610e109061266c565b8015610e5d5780601f10610e3257610100808354040283529160200191610e5d565b820191906000526020600020905b815481529060010190602001808311610e4057829003601f168201915b5050505050815260200160048201548152602001600582018054610e809061266c565b80601f0160208091040260200160405190810160405280929190818152602001828054610eac9061266c565b8015610ef95780601f10610ece57610100808354040283529160200191610ef9565b820191906000526020600020905b815481529060010190602001808311610edc57829003601f168201915b5050505050815250509050919050565b6008546001600160a01b03163314610f5a5760405162461bcd60e51b815260206004820152601460248201527313db9b1e48195cd8dc9bddc818dbdb9d1c9858dd60621b6044820152606401610773565b6001600160a01b038216610fa85760405162461bcd60e51b8152602060048201526015602482015274496e76616c6964207475746f72206164647265737360581b6044820152606401610773565b6007805460009182610fb98361277b565b9091555060408051808201909152600e81526d65737361795f666565646261636b60901b6020820152909150610fef8483611d8e565b6040518060c00160405280838152602001856001600160a01b03168152602001848152602001828152602001428152602001600c8360405161103191906126f3565b9081526020016040518091039020805461104a9061266c565b80601f01602080910402602001604051908101604052809291908181526020018280546110769061266c565b80156110c35780601f10611098576101008083540402835291602001916110c3565b820191906000526020600020905b8154815290600101906020018083116110a657829003601f168201915b50505091909252505060008381526009602090815260409182902083518155908301516001820180546001600160a01b0319166001600160a01b039092169190911790559082015160028201556060820151600382019061112490826127e2565b506080820151600482015560a0820151600582019061114390826127e2565b5050506001600160a01b0384166000818152600a60209081526040808320805460018101825590845282842001869055928252600b9052819020905161118a9083906126f3565b90815260405190819003602001902080549060006111a78361277b565b9190505550836001600160a01b0316827f105aa2a071353186ac1b87c1d4faf309715ca47023867102fe9a77ee0f63022685846040516111e89291906128a2565b60405180910390a350505050565b6111fe611c3e565b60008251116112445760405162461bcd60e51b8152602060048201526012602482015271496e76616c6964206261646765207479706560701b6044820152606401610773565b600081511161128c5760405162461bcd60e51b8152602060048201526014602482015273496e76616c6964206d657461646174612055524960601b6044820152606401610773565b80600c8360405161129d91906126f3565b908152602001604051809103902090816112b791906127e2565b507fe556f2d90b548cdc130fd5c20b877f594abea7c405e972cdb46b4eba32ef4f5d82826040516112e99291906128bb565b60405180910390a15050565b6060600180546106859061266c565b600960205260009081526040902080546001820154600283015460038401805493946001600160a01b039093169391929161133e9061266c565b80601f016020809104026020016040519081016040528092919081815260200182805461136a9061266c565b80156113b75780601f1061138c576101008083540402835291602001916113b7565b820191906000526020600020905b81548152906001019060200180831161139a57829003601f168201915b5050505050908060040154908060050180546113d29061266c565b80601f01602080910402602001604051908101604052809291908181526020018280546113fe9061266c565b801561144b5780601f106114205761010080835404028352916020019161144b565b820191906000526020600020905b81548152906001019060200180831161142e57829003601f168201915b5050505050905086565b61145d611c3e565b6001600160a01b0383166114ab5760405162461bcd60e51b8152602060048201526015602482015274496e76616c6964207475746f72206164647265737360581b6044820152606401610773565b6000600c826040516114bd91906126f3565b908152602001604051809103902080546114d69061266c565b90501161151a5760405162461bcd60e51b8152602060048201526012602482015271496e76616c6964206261646765207479706560701b6044820152606401610773565b600780546000918261152b8361277b565b91905055905061153b8482611d8e565b6040518060c00160405280828152602001856001600160a01b03168152602001848152602001838152602001428152602001600c8460405161157d91906126f3565b908152602001604051809103902080546115969061266c565b80601f01602080910402602001604051908101604052809291908181526020018280546115c29061266c565b801561160f5780601f106115e45761010080835404028352916020019161160f565b820191906000526020600020905b8154815290600101906020018083116115f257829003601f168201915b50505091909252505060008281526009602090815260409182902083518155908301516001820180546001600160a01b0319166001600160a01b039092169190911790559082015160028201556060820151600382019061167090826127e2565b506080820151600482015560a0820151600582019061168f90826127e2565b5050506001600160a01b0384166000818152600a60209081526040808320805460018101825590845282842001859055928252600b905281902090516116d69084906126f3565b90815260405190819003602001902080549060006116f38361277b565b9190505550836001600160a01b0316817f105aa2a071353186ac1b87c1d4faf309715ca47023867102fe9a77ee0f63022685856040516111e89291906128a2565b8051602081830181018051600c82529282019190930120915280546117589061266c565b80601f01602080910402602001604051908101604052809291908181526020018280546117849061266c565b80156117d15780601f106117a6576101008083540402835291602001916117d1565b820191906000526020600020905b8154815290600101906020018083116117b457829003601f168201915b505050505081565b6117e33383611a31565b6117ff5760405162461bcd60e51b8152600401610773906126a6565b61180b84848484611da8565b50505050565b606061181c82611c21565b61185f5760405162461bcd60e51b8152602060048201526014602482015273151bdad95b88191bd95cc81b9bdd08195e1a5cdd60621b6044820152606401610773565b6000828152600960205260409020600501805461187b9061266c565b80601f01602080910402602001604051908101604052809291908181526020018280546118a79061266c565b8015610cf35780601f106118c957610100808354040283529160200191610cf3565b820191906000526020600020905b8154815290600101906020018083116118d75750939695505050505050565b6118fe611c3e565b6001600160a01b0381166119635760405162461bcd60e51b815260206004820152602660248201527f4f776e61626c653a206e6577206f776e657220697320746865207a65726f206160448201526564647265737360d01b6064820152608401610773565b61196c81611d3c565b50565b611977611c3e565b6001600160a01b0381166119bf5760405162461bcd60e51b815260206004820152600f60248201526e496e76616c6964206164647265737360881b6044820152606401610773565b600880546001600160a01b0319166001600160a01b0392909216919091179055565b6119ea81611c21565b61196c5760405162461bcd60e51b8152602060048201526018602482015277115490cdcc8c4e881a5b9d985b1a59081d1bdad95b88125160421b6044820152606401610773565b600080611a3d83610b99565b9050806001600160a01b0316846001600160a01b03161480611a8457506001600160a01b0380821660009081526005602090815260408083209388168352929052205460ff165b80611aa85750836001600160a01b0316611a9d84610708565b6001600160a01b0316145b949350505050565b826001600160a01b0316611ac382610b99565b6001600160a01b031614611ae95760405162461bcd60e51b8152600401610773906128e0565b6001600160a01b038216611b4b5760405162461bcd60e51b8152602060048201526024808201527f4552433732313a207472616e7366657220746f20746865207a65726f206164646044820152637265737360e01b6064820152608401610773565b611b588383836001611ddb565b826001600160a01b0316611b6b82610b99565b6001600160a01b031614611b915760405162461bcd60e51b8152600401610773906128e0565b600081815260046020908152604080832080546001600160a01b03199081169091556001600160a01b0387811680865260038552838620805460001901905590871680865283862080546001019055868652600290945282852080549092168417909155905184937fddf252ad1be2c89b69c2b068fc378daa952ba7f163c4a11628f55a4df523b3ef91a4505050565b6000908152600260205260409020546001600160a01b0316151590565b6006546001600160a01b03163314610c915760405162461bcd60e51b815260206004820181905260248201527f4f776e61626c653a2063616c6c6572206973206e6f7420746865206f776e65726044820152606401610773565b6000611ca382610b99565b9050611cb3816000846001611ddb565b611cbc82610b99565b600083815260046020908152604080832080546001600160a01b03199081169091556001600160a01b0385168085526003845282852080546000190190558785526002909352818420805490911690555192935084927fddf252ad1be2c89b69c2b068fc378daa952ba7f163c4a11628f55a4df523b3ef908390a45b5050565b600680546001600160a01b038381166001600160a01b0319831681179093556040519116919082907f8be0079c531659141344cd1fd0a4f28419497f9722a3daafe3b4186f6b6457e090600090a35050565b611d38828260405180602001604052806000815250611e49565b611db3848484611ab0565b611dbf84848484611e7c565b61180b5760405162461bcd60e51b815260040161077390612925565b6001600160a01b0384161580611df857506001600160a01b038316155b611e445760405162461bcd60e51b815260206004820152601f60248201527f536f756c626f756e643a205472616e73666572206e6f7420616c6c6f776564006044820152606401610773565b61180b565b611e538383611f7d565b611e606000848484611e7c565b6107ad5760405162461bcd60e51b815260040161077390612925565b60006001600160a01b0384163b15611f7257604051630a85bd0160e11b81526001600160a01b0385169063150b7a0290611ec0903390899088908890600401612977565b6020604051808303816000875af1925050508015611efb575060408051601f3d908101601f19168201909252611ef8918101906129b4565b60015b611f58573d808015611f29576040519150601f19603f3d011682016040523d82523d6000602084013e611f2e565b606091505b508051600003611f505760405162461bcd60e51b815260040161077390612925565b805181602001fd5b6001600160e01b031916630a85bd0160e11b149050611aa8565b506001949350505050565b6001600160a01b038216611fd35760405162461bcd60e51b815260206004820181905260248201527f4552433732313a206d696e7420746f20746865207a65726f20616464726573736044820152606401610773565b611fdc81611c21565b156120295760405162461bcd60e51b815260206004820152601c60248201527f4552433732313a20746f6b656e20616c7265616479206d696e746564000000006044820152606401610773565b612037600083836001611ddb565b61204081611c21565b1561208d5760405162461bcd60e51b815260206004820152601c60248201527f4552433732313a20746f6b656e20616c7265616479206d696e746564000000006044820152606401610773565b6001600160a01b038216600081815260036020908152604080832080546001019055848352600290915280822080546001600160a01b0319168417905551839291907fddf252ad1be2c89b69c2b068fc378daa952ba7f163c4a11628f55a4df523b3ef908290a45050565b5080546121049061266c565b6000825580601f10612114575050565b601f01602090049060005260206000209081019061196c91905b80821115612142576000815560010161212e565b5090565b6001600160e01b03198116811461196c57600080fd5b60006020828403121561216e57600080fd5b813561217981612146565b9392505050565b80356001600160a01b038116811461219757600080fd5b919050565b6000602082840312156121ae57600080fd5b61217982612180565b60005b838110156121d25781810151838201526020016121ba565b50506000910152565b600081518084526121f38160208601602086016121b7565b601f01601f19169290920160200192915050565b60208152600061217960208301846121db565b60006020828403121561222c57600080fd5b5035919050565b6000806040838503121561224657600080fd5b61224f83612180565b946020939093013593505050565b634e487b7160e01b600052604160045260246000fd5b600067ffffffffffffffff8084111561228e5761228e61225d565b604051601f8501601f19908116603f011681019082821181831017156122b6576122b661225d565b816040528093508581528686860111156122cf57600080fd5b858560208301376000602087830101525050509392505050565b600082601f8301126122fa57600080fd5b61217983833560208501612273565b6000806040838503121561231c57600080fd5b61232583612180565b9150602083013567ffffffffffffffff81111561234157600080fd5b61234d858286016122e9565b9150509250929050565b60008060006060848603121561236c57600080fd5b61237584612180565b925061238360208501612180565b9150604084013590509250925092565b6020808252825182820181905260009190848201906040850190845b818110156123cb578351835292840192918401916001016123af565b50909695505050505050565b602081528151602082015260018060a01b036020830151166040820152604082015160608201526000606083015160c0608084015261241960e08401826121db565b9050608084015160a084015260a0840151601f198483030160c085015261244082826121db565b95945050505050565b6000806040838503121561245c57600080fd5b823567ffffffffffffffff8082111561247457600080fd5b612480868387016122e9565b9350602085013591508082111561249657600080fd5b5061234d858286016122e9565b86815260018060a01b038616602082015284604082015260c0606082015260006124d060c08301866121db565b84608084015282810360a08401526124e881856121db565b9998505050505050505050565b60008060006060848603121561250a57600080fd5b61251384612180565b925060208401359150604084013567ffffffffffffffff81111561253657600080fd5b612542868287016122e9565b9150509250925092565b6000806040838503121561255f57600080fd5b61256883612180565b91506020830135801515811461257d57600080fd5b809150509250929050565b60006020828403121561259a57600080fd5b813567ffffffffffffffff8111156125b157600080fd5b611aa8848285016122e9565b600080600080608085870312156125d357600080fd5b6125dc85612180565b93506125ea60208601612180565b925060408501359150606085013567ffffffffffffffff81111561260d57600080fd5b8501601f8101871361261e57600080fd5b61262d87823560208401612273565b91505092959194509250565b6000806040838503121561264c57600080fd5b61265583612180565b915061266360208401612180565b90509250929050565b600181811c9082168061268057607f821691505b6020821081036126a057634e487b7160e01b600052602260045260246000fd5b50919050565b6020808252602d908201527f4552433732313a2063616c6c6572206973206e6f7420746f6b656e206f776e6560408201526c1c881bdc88185c1c1c9bdd9959609a1b606082015260800190565b600082516127058184602087016121b7565b9190910192915050565b634e487b7160e01b600052601160045260246000fd5b6000816127345761273461270f565b506000190190565b634e487b7160e01b600052603260045260246000fd5b818103818111156106705761067061270f565b634e487b7160e01b600052603160045260246000fd5b60006001820161278d5761278d61270f565b5060010190565b601f8211156107ad57600081815260208120601f850160051c810160208610156127bb5750805b601f850160051c820191505b818110156127da578281556001016127c7565b505050505050565b815167ffffffffffffffff8111156127fc576127fc61225d565b6128108161280a845461266c565b84612794565b602080601f831160018114612845576000841561282d5750858301515b600019600386901b1c1916600185901b1785556127da565b600085815260208120601f198616915b8281101561287457888601518255948401946001909101908401612855565b50858210156128925787850151600019600388901b60f8161c191681555b5050505050600190811b01905550565b828152604060208201526000611aa860408301846121db565b6040815260006128ce60408301856121db565b828103602084015261244081856121db565b60208082526025908201527f4552433732313a207472616e736665722066726f6d20696e636f72726563742060408201526437bbb732b960d91b606082015260800190565b60208082526032908201527f4552433732313a207472616e7366657220746f206e6f6e20455243373231526560408201527131b2b4bb32b91034b6b83632b6b2b73a32b960711b606082015260800190565b6001600160a01b03858116825284166020820152604081018390526080606082018190526000906129aa908301846121db565b9695505050505050565b6000602082840312156129c657600080fd5b81516121798161214656fea264697066735822122005a7dda4c8602a364e6a76643663ab4d1dc32ac891581517fe1a6804880126d664736f6c63430008140033",
  "linkReferences": {},
  "deployedLinkReferences": {}
}