{
  "_format": "hh-sol-artifact-1",
  "contractName": "ScholarshipPool",
  "sourceName": "contracts_src/ScholarshipPool.sol",
  "abi": [
    {
      "inputs": [
        {
          "internalType": "address",
          "name": "_attestationAuthority",
          "type": "address"
        }
      ],
      "stateMutability": "nonpayable",
      "type": "constructor"
    },
    {
      "anonymous": false,
      "inputs": [
        {
          "indexed": true,
          "internalType": "uint256",
          "name": "claimId",
          "type": "uint256"
        },
        {
          "indexed": true,
          "internalType": "address",
          "name": "learner",
          "type": "address"
        },
        {
          "indexed": false,
          "internalType": "bool",
          "name": "verified",
          "type": "bool"
        }
      ],
      "name": "ClaimVerified",
      "type": "event"
    },
    {
      "anonymous": false,
      "inputs": [
        {
          "indexed": true,
          "internalType": "uint256",
          "name": "roundId",
          "type": "uint256"
        },
        {
          "indexed": true,
          "internalType": "address",
          "name": "donor",
          "type": "address"
        },
        {
          "indexed": false,
          "internalType": "uint256",
          "name": "amount",
          "type": "uint256"
        }
      ],
      "name": "DonationMade",
      "type": "event"
    },
    {
      "anonymous": false,
      "inputs": [
        {
          "indexed": true,
          "internalType": "uint256",
          "name": "claimId",
          "type": "uint256"
        },
        {
          "indexed": true,
          "internalType": "address",
          "name": "learner",
          "type": "address"
        },
        {
          "indexed": false,
          "internalType": "uint256",
          "name": "roundId",
          "type": "uint256"
        },
        {
          "indexed": false,
          "internalType": "uint256",
          "name": "improvementPercent",
          "type": "uint256"
        }
      ],
      "name": "ImprovementClaimed",
      "type": "event"
    },
    {
      "anonymous": false,
      "inputs": [
        {
          "indexed": true,
          "internalType": "address",
          "name": "previousOwner",
          "type": "address"
        },
        {
          "indexed": true,
          "internalType": "address",
          "name": "newOwner",
          "type": "address"
        }
      ],
      "name": "OwnershipTransferred",
      "type": "event"
    },
    {
      "anonymous": false,
      "inputs": [
        {
          "indexed": false,
          "internalType": "address",
          "name": "account",
          "type": "address"
        }
      ],
      "name": "Paused",
      "type": "event"
    },
    {
      "anonymous": false,
      "inputs": [
        {
          "indexed": true,
          "internalType": "uint256",
          "name": "claimId",
          "type": "uint256"
        },
        {
          "indexed": true,
          "internalType": "address",
          "name": "learner",
          "type": "address"
        },
        {
          "indexed": false,
          "internalType": "uint256",
          "name": "amount",
          "type": "uint256"
        }
      ],
      "name": "RewardDistributed",
      "type": "event"
    },
    {
      "anonymous": false,
      "inputs": [
        {
          "indexed": true,
          "internalType": "uint256",
          "name": "roundId",
          "type": "uint256"
        },
        {
          "indexed": false,
          "internalType": "uint256",
          "name": "startTime",
          "type": "uint256"
        },
        {
          "indexed": false,
          "internalType": "uint256",
          "name": "endTime",
          "type": "uint256"
        },
        {
          "indexed": false,
          "internalType": "uint256",
          "name": "matchingPool",
          "type": "uint256"
        }
      ],
      "name": "RoundCreated",
      "type": "event"
    },
    {
      "anonymous": false,
      "inputs": [
        {
          "indexed": true,
          "internalType": "uint256",
          "name": "roundId",
          "type": "uint256"
        },
        {
          "indexed": false,
          "internalType": "uint256",
          "name": "totalDistributed",
          "type": "uint256"
        }
      ],
      "name": "RoundFinalized",
      "type": "event"
    },
    {
      "anonymous": false,
      "inputs": [
        {
          "indexed": false,
          "internalType": "address",
          "name": "account",
          "type": "address"
        }
      ],
      "name": "Unpaused",
      "type": "event"
    },
    {
      "inputs": [],
      "name": "QF_MULTIPLIER",
      "outputs": [
        {
          "internalType": "uint256",
          "name": "",
          "type": "uint256"
        }
      ],
      "stateMutability": "view",
      "type": "function"
    },
    {
      "inputs": [],
      "name": "attestationAuthority",
      "outputs": [
        {
          "internalType": "address",
          "name": "",
          "type": "address"
        }
      ],
      "stateMutability": "view",
      "type": "function"
    },
    {
      "inputs": [
        {
          "internalType": "uint256",
          "name": "_roundId",
          "type": "uint256"
        },
        {
          "internalType": "string",
          "name": "_metricType",
          "type": "string"
        },
        {
          "internalType": "uint256",
          "name": "_beforeScore",
          "type": "uint256"
        },
        {
          "internalType": "uint256",
          "name": "_afterScore",
          "type": "uint256"
        },
        {
          "internalType": "uint256",
          "name": "_timeframe",
          "type": "uint256"
        }
      ],
      "name": "claimImprovement",
      "outputs": [],
      "stateMutability": "nonpayable",
      "type": "function"
    },
    {
      "inputs": [
        {
          "internalType": "uint256",
          "name": "",
          "type": "uint256"
        }
      ],
      "name": "claims",
      "outputs": [
        {
          "internalType": "uint256",
          "name": "id",
          "type": "uint256"
        },
        {
          "internalType": "address",
          "name": "learner",
          "type": "address"
        },
        {
          "internalType": "uint256",
          "name": "roundId",
          "type": "uint256"
        },
        {
          "internalType": "string",
          "name": "metricType",
          "type": "string"
        },
        {
          "internalType": "uint256",
          "name": "beforeScore",
          "type": "uint256"
        },
        {
          "internalType": "uint256",
          "name": "afterScore",
          "type": "uint256"
        },
        {
          "internalType": "uint256",
          "name": "improvementPercent",
          "type": "uint256"
        },
        {
          "internalType": "uint256",
          "name": "timeframe",
          "type": "uint256"
        },
        {
          "internalType": "bool",
          "name": "verified",
          "type": "bool"
        },
        {
          "internalType": "bool",
          "name": "rewarded",
          "type": "bool"
        },
        {
          "internalType": "uint256",
          "name": "rewardAmount",
          "type": "uint256"
        },
        {
          "internalType": "uint256",
          "name": "claimedAt",
          "type": "uint256"
        }
      ],
      "stateMutability": "view",
      "type": "function"
    },
    {
      "inputs": [
        {
          "internalType": "uint256",
          "name": "_duration",
          "type": "uint256"
        },
        {
          "internalType": "uint256",
          "name": "_matchingPool",
          "type": "uint256"
        }
      ],
      "name": "createRound",
      "outputs": [],
      "stateMutability": "payable",
      "type": "function"
    },
    {
      "inputs": [],
      "name": "currentRoundId",
      "outputs": [
        {
          "internalType": "uint256",
          "name": "",
          "type": "uint256"
        }
      ],
      "stateMutability": "view",
      "type": "function"
    },
    {
      "inputs": [
        {
          "internalType": "uint256",
          "name": "_roundId",
          "type": "uint256"
        }
      ],
      "name": "donate",
      "outputs": [],
      "stateMutability": "payable",
      "type": "function"
    },
    {
      "inputs": [
        {
          "internalType": "address",
          "name": "",
          "type": "address"
        },
        {
          "internalType": "uint256",
          "name": "",
          "type": "uint256"
        }
      ],
      "name": "donorDonations",
      "outputs": [
        {
          "internalType": "uint256",
          "name": "",
          "type": "uint256"
        }
      ],
      "stateMutability": "view",
      "type": "function"
    },
    {
      "inputs": [],
      "name": "emergencyWithdraw",
      "outputs": [],
      "stateMutability": "nonpayable",
      "type": "function"
    },
    {
      "inputs": [
        {
          "internalType": "uint256",
          "name": "_roundId",
          "type": "uint256"
        }
      ],
      "name": "finalizeRound",
      "outputs": [],
      "stateMutability": "nonpayable",
      "type": "function"
    },
    {
      "inputs": [
        {
          "internalType": "uint256",
          "name": "_claimId",
          "type": "uint256"
        }
      ],
      "name": "getClaim",
      "outputs": [
        {
          "components": [
            {
              "internalType": "uint256",
              "name": "id",
              "type": "uint256"
            },
            {
              "internalType": "address",
              "name": "learner",
              "type": "address"
            },
            {
              "internalType": "uint256",
              "name": "roundId",
              "type": "uint256"
            },
            {
              "internalType": "string",
              "name": "metricType",
              "type": "string"
            },
            {
              "internalType": "uint256",
              "name": "beforeScore",
              "type": "uint256"
            },
            {
              "internalType": "uint256",
              "name": "afterScore",
              "type": "uint256"
            },
            {
              "internalType": "uint256",
              "name": "improvementPercent",
              "type": "uint256"
            },
            {
              "internalType": "uint256",
              "name": "timeframe",
              "type": "uint256"
            },
            {
              "internalType": "bool",
              "name": "verified",
              "type": "bool"
            },
            {
              "internalType": "bool",
              "name": "rewarded",
              "type": "bool"
            },
            {
              "internalType": "uint256",
              "name": "rewardAmount",
              "type": "uint256"
            },
            {
              "internalType": "uint256",
              "name": "claimedAt",
              "type": "uint256"
            }
          ],
          "internalType": "struct ScholarshipPool.ImprovementClaim",
          "name": "",
          "type": "tuple"
        }
      ],
      "stateMutability": "view",
      "type": "function"
    },
    {
      "inputs": [],
      "name": "getContractBalance",
      "outputs": [
        {
          "internalType": "uint256",
          "name": "",
          "type": "uint256"
        }
      ],
      "stateMutability": "view",
      "type": "function"
    },
    {
      "inputs": [],
      "name": "getCurrentRound",
      "outputs": [
        {
          "components": [
            {
              "internalType": "uint256",
              "name": "id",
              "type": "uint256"
            },
            {
              "internalType": "uint256",
              "name": "startTime",
              "type": "uint256"
            },
            {
              "internalType": "uint256",
              "name": "endTime",
              "type": "uint256"
            },
            {
              "internalType": "uint256",
              "name": "matchingPool",
              "type": "uint256"
            },
            {
              "internalType": "uint256",
              "name": "totalDonations",
              "type": "uint256"
            },
            {
              "internalType": "uint256",
              "name": "totalDistributed",
              "type": "uint256"
            },
            {
              "internalType": "bool",
              "name": "finalized",
              "type": "bool"
            },
            {
              "internalType": "uint256",
              "name": "learnerCount",
              "type": "uint256"
            }
          ],
          "internalType": "struct ScholarshipPool.Round",
          "name": "",
          "type": "tuple"
        }
      ],
      "stateMutability": "view",
      "type": "function"
    },
    {
      "inputs": [
        {
          "internalType": "address",
          "name": "_learner",
          "type": "address"
        }
      ],
      "name": "getLearnerStats",
      "outputs": [
        {
          "components": [
            {
              "internalType": "uint256",
              "name": "totalRewards",
              "type": "uint256"
            },
            {
              "internalType": "uint256",
              "name": "claimsCount",
              "type": "uint256"
            },
            {
              "internalType": "uint256",
              "name": "averageImprovement",
              "type": "uint256"
            },
            {
              "internalType": "uint256",
              "name": "donationsReceived",
              "type": "uint256"
            }
          ],
          "internalType": "struct ScholarshipPool.LearnerStats",
          "name": "",
          "type": "tuple"
        }
      ],
      "stateMutability": "view",
      "type": "function"
    },
    {
      "inputs": [
        {
          "internalType": "uint256",
          "name": "_roundId",
          "type": "uint256"
        }
      ],
      "name": "getRound",
      "outputs": [
        {
          "components": [
            {
              "internalType": "uint256",
              "name": "id",
              "type": "uint256"
            },
            {
              "internalType": "uint256",
              "name": "startTime",
              "type": "uint256"
            },
            {
              "internalType": "uint256",
              "name": "endTime",
              "type": "uint256"
            },
            {
              "internalType": "uint256",
              "name": "matchingPool",
              "type": "uint256"
            },
            {
              "internalType": "uint256",
              "name": "totalDonations",
              "type": "uint256"
            },
            {
              "internalType": "uint256",
              "name": "totalDistributed",
              "type": "uint256"
            },
            {
              "internalType": "bool",
              "name": "finalized",
              "type": "bool"
            },
            {
              "internalType": "uint256",
              "name": "learnerCount",
              "type": "uint256"
            }
          ],
          "internalType": "struct ScholarshipPool.Round",
          "name": "",
          "type": "tuple"
        }
      ],
      "stateMutability": "view",
      "type": "function"
    },
    {
      "inputs": [
        {
          "internalType": "uint256",
          "name": "_roundId",
          "type": "uint256"
        }
      ],
      "name": "getRoundClaims",
      "outputs": [
        {
          "internalType": "uint256[]",
          "name": "",
          "type": "uint256[]"
        }
      ],
      "stateMutability": "view",
      "type": "function"
    },
    {
      "inputs": [
        {
          "internalType": "uint256",
          "name": "_roundId",
          "type": "uint256"
        }
      ],
      "name": "getRoundDonations",
      "outputs": [
        {
          "components": [
            {
              "internalType": "address",
              "name": "donor",
              "type": "address"
            },
            {
              "internalType": "uint256",
              "name": "roundId",
              "type": "uint256"
            },
            {
              "internalType": "uint256",
              "name": "amount",
              "type": "uint256"
            },
            {
              "internalType": "uint256",
              "name": "timestamp",
              "type": "uint256"
            }
          ],
          "internalType": "struct ScholarshipPool.Donation[]",
          "name": "",
          "type": "tuple[]"
        }
      ],
      "stateMutability": "view",
      "type": "function"
    },
    {
      "inputs": [
        {
          "internalType": "uint256",
          "name": "_roundId",
          "type": "uint256"
        }
      ],
      "name": "getRoundLearners",
      "outputs": [
        {
          "internalType": "address[]",
          "name": "",
          "type": "address[]"
        }
      ],
      "stateMutability": "view",
      "type": "function"
    },
    {
      "inputs": [
        {
          "internalType": "address",
          "name": "",
          "type": "address"
        },
        {
          "internalType": "uint256",
          "name": "",
          "type": "uint256"
        }
      ],
      "name": "learnerRoundDonations",
      "outputs": [
        {
          "internalType": "uint256",
          "name": "",
          "type": "uint256"
        }
      ],
      "stateMutability": "view",
      "type": "function"
    },
    {
      "inputs": [
        {
          "internalType": "address",
          "name": "",
          "type": "address"
        }
      ],
      "name": "learnerStats",
      "outputs": [
        {
          "internalType": "uint256",
          "name": "totalRewards",
          "type": "uint256"
        },
        {
          "internalType": "uint256",
          "name": "claimsCount",
          "type": "uint256"
        },
        {
          "internalType": "uint256",
          "name": "averageImprovement",
          "type": "uint256"
        },
        {
          "internalType": "uint256",
          "name": "donationsReceived",
          "type": "uint256"
        }
      ],
      "stateMutability": "view",
      "type": "function"
    },
    {
      "inputs": [],
      "name": "minImprovementPercent",
      "outputs": [
        {
          "internalType": "uint256",
          "name": "",
          "type": "uint256"
        }
      ],
      "stateMutability": "view",
      "type": "function"
    },
    {
      "inputs": [],
      "name": "nextClaimId",
      "outputs": [
        {
          "internalType": "uint256",
          "name": "",
          "type": "uint256"
        }
      ],
      "stateMutability": "view",
      "type": "function"
    },
    {
      "inputs": [],
      "name": "owner",
      "outputs": [
        {
          "internalType": "address",
          "name": "",
          "type": "address"
        }
      ],
      "stateMutability": "view",
      "type": "function"
    },
    {
      "inputs": [],
      "name": "pause",
      "outputs": [],
      "stateMutability": "nonpayable",
      "type": "function"
    },
    {
      "inputs": [],
      "name": "paused",
      "outputs": [
        {
          "internalType": "bool",
          "name": "",
          "type": "bool"
        }
      ],
      "stateMutability": "view",
      "type": "function"
    },
    {
      "inputs": [],
      "name": "renounceOwnership",
      "outputs": [],
      "stateMutability": "nonpayable",
      "type": "function"
    },
    {
      "inputs": [
        {
          "internalType": "uint256",
          "name": "",
          "type": "uint256"
        },
        {
          "internalType": "uint256",
          "name": "",
          "type": "uint256"
        }
      ],
      "name": "roundClaims",
      "outputs": [
        {
          "internalType": "uint256",
          "name": "",
          "type": "uint256"
        }
      ],
      "stateMutability": "view",
      "type": "function"
    },
    {
      "inputs": [
        {
          "internalType": "uint256",
          "name": "",
          "type": "uint256"
        },
        {
          "internalType": "uint256",
          "name": "",
          "type": "uint256"
        }
      ],
      "name": "roundDonations",
      "outputs": [
        {
          "internalType": "address",
          "name": "donor",
          "type": "address"
        },
        {
          "internalType": "uint256",
          "name": "roundId",
          "type": "uint256"
        },
        {
          "internalType": "uint256",
          "name": "amount",
          "type": "uint256"
        },
        {
          "internalType": "uint256",
          "name": "timestamp",
          "type": "uint256"
        }
      ],
      "stateMutability": "view",
      "type": "function"
    },
    {
      "inputs": [
        {
          "internalType": "uint256",
          "name": "",
          "type": "uint256"
        },
        {
          "internalType": "uint256",
          "name": "",
          "type": "uint256"
        }
      ],
      "name": "roundLearners",
      "outputs": [
        {
          "internalType": "address",
          "name": "",
          "type": "address"
        }
      ],
      "stateMutability": "view",
      "type": "function"
    },
    {
      "inputs": [
        {
          "internalType": "uint256",
          "name": "",
          "type": "uint256"
        }
      ],
      "name": "rounds",
      "outputs": [
        {
          "internalType": "uint256",
          "name": "id",
          "type": "uint256"
        },
        {
          "internalType": "uint256",
          "name": "startTime",
          "type": "uint256"
        },
        {
          "internalType": "uint256",
          "name": "endTime",
          "type": "uint256"
        },
        {
          "internalType": "uint256",
          "name": "matchingPool",
          "type": "uint256"
        },
        {
          "internalType": "uint256",
          "name": "totalDonations",
          "type": "uint256"
        },
        {
          "internalType": "uint256",
          "name": "totalDistributed",
          "type": "uint256"
        },
        {
          "internalType": "bool",
          "name": "finalized",
          "type": "bool"
        },
        {
          "internalType": "uint256",
          "name": "learnerCount",
          "type": "uint256"
        }
      ],
      "stateMutability": "view",
      "type": "function"
    },
    {
      "inputs": [
        {
          "internalType": "address",
          "name": "_authority",
          "type": "address"
        }
      ],
      "name": "setAttestationAuthority",
      "outputs": [],
      "stateMutability": "nonpayable",
      "type": "function"
    },
    {
      "inputs": [
        {
          "internalType": "uint256",
          "name": "_percent",
          "type": "uint256"
        }
      ],
      "name": "setMinImprovementPercent",
      "outputs": [],
      "stateMutability": "nonpayable",
      "type": "function"
    },
    {
      "inputs": [
        {
          "internalType": "address",
          "name": "",
          "type": "address"
        }
      ],
      "name": "totalDonatedByDonor",
      "outputs": [
        {
          "internalType": "uint256",
          "name": "",
          "type": "uint256"
        }
      ],
      "stateMutability": "view",
      "type": "function"
    },
    {
      "inputs": [
        {
          "internalType": "address",
          "name": "newOwner",
          "type": "address"
        }
      ],
      "name": "transferOwnership",
      "outputs": [],
      "stateMutability": "nonpayable",
      "type": "function"
    },
    {
      "inputs": [],
      "name": "unpause",
      "outputs": [],
      "stateMutability": "nonpayable",
      "type": "function"
    },
    {
      "inputs": [
        {
          "internalType": "uint256",
          "name": "_claimId",
          "type": "uint256"
        },
        {
          "internalType": "bytes",
          "name": "_signature",
          "type": "bytes"
        }
      ],
      "name": "verifyImprovement",
      "outputs": [],
      "stateMutability": "nonpayable",
      "type": "function"
    },
    {
      "stateMutability": "payable",
      "type": "receive"
    }
  ],
  "bytecode": "0x608060405260006003556001600455600a6006553480156200002057600080fd5b5060405162002d1938038062002d1983398101604081905262000043916200012d565b6200004e33620000dd565b600180556002805460ff191690556001600160a01b038116620000b75760405162461bcd60e51b815260206004820152601d60248201527f496e76616c6964206174746573746174696f6e20617574686f72697479000000604482015260640160405180910390fd5b600580546001600160a01b0319166001600160a01b03929092169190911790556200015f565b600080546001600160a01b038381166001600160a01b0319831681178455604051919092169283917f8be0079c531659141344cd1fd0a4f28419497f9722a3daafe3b4186f6b6457e09190a35050565b6000602082840312156200014057600080fd5b81516001600160a01b03811681146200015857600080fd5b9392505050565b612baa806200016f6000396000f3fe6080604052600436106102135760003560e01c80638c65c81f11610118578063ad66423e116100a0578063d861643c1161006f578063d861643c146107df578063db2e21bc146107ff578063f14faf6f14610814578063f2fde38b14610827578063f6d93fe01461084757600080fd5b8063ad66423e1461076a578063b87fc6c21461077f578063cd7141fb1461079f578063d16ee5aa146107bf57600080fd5b8063a0021cf1116100e7578063a0021cf114610678578063a32bf5971461068e578063a4cb72fc146106a3578063a888c2cd14610705578063abd51a361461073d57600080fd5b80638c65c81f1461051e5780638da5cb5b146105c15780638f1327c0146105df5780639cbe5efd1461066257600080fd5b80635aef24471161019b57806371df76af1161016a57806371df76af1461047b5780637db8ff53146104b35780638456cb59146104e0578063848ee75f146104f557806387fbec1b1461050857600080fd5b80635aef2447146104035780635c975abb146104305780636f9fb98a14610453578063715018a61461046657600080fd5b80633055614d116101e25780633055614d146103365780633469f6e2146103565780633f4ba83a146103765780634395e1bf1461038b578063499b4b66146103b957600080fd5b80630ce12cf0146102555780630f55d14a146102b1578063232e03b7146102de578063293965d9146102fe57600080fd5b3661025057600060035411801561023e57506003546000908152600760205260409020600201544211155b1561024e5761024e600354610874565b005b600080fd5b34801561026157600080fd5b5061027561027036600461252e565b610b5a565b6040516102a891908151815260208083015190820152604080830151908201526060918201519181019190915260800190565b60405180910390f35b3480156102bd57600080fd5b506102d16102cc366004612549565b610bd3565b6040516102a89190612562565b3480156102ea57600080fd5b5061024e6102f936600461252e565b610c3f565b34801561030a57600080fd5b5061031e6103193660046125af565b610cb1565b6040516001600160a01b0390911681526020016102a8565b34801561034257600080fd5b5061024e61035136600461265d565b610ce9565b34801561036257600080fd5b5061024e610371366004612549565b610ef4565b34801561038257600080fd5b5061024e611460565b34801561039757600080fd5b506103ab6103a63660046126b8565b611472565b6040519081526020016102a8565b3480156103c557600080fd5b506103d96103d43660046125af565b6114a3565b604080516001600160a01b03909516855260208501939093529183015260608201526080016102a8565b34801561040f57600080fd5b5061042361041e366004612549565b6114f3565b6040516102a89190612728565b34801561043c57600080fd5b5060025460ff1660405190151581526020016102a8565b34801561045f57600080fd5b50476103ab565b34801561047257600080fd5b5061024e61169e565b34801561048757600080fd5b506103ab6104963660046126b8565b600c60209081526000928352604080842090915290825290205481565b3480156104bf57600080fd5b506104d36104ce366004612549565b6116b0565b6040516102a891906127ec565b3480156104ec57600080fd5b5061024e61174d565b61024e6105033660046125af565b61175d565b34801561051457600080fd5b506103ab60065481565b34801561052a57600080fd5b50610584610539366004612549565b60076020819052600091825260409091208054600182015460028301546003840154600485015460058601546006870154969097015494969395929491939092909160ff9091169088565b604080519889526020890197909752958701949094526060860192909252608085015260a0840152151560c083015260e0820152610100016102a8565b3480156105cd57600080fd5b506000546001600160a01b031661031e565b3480156105eb57600080fd5b506105ff6105fa366004612549565b6118fb565b6040516102a89190600061010082019050825182526020830151602083015260408301516040830152606083015160608301526080830151608083015260a083015160a083015260c0830151151560c083015260e083015160e083015292915050565b34801561066e57600080fd5b506103ab60035481565b34801561068457600080fd5b506103ab60045481565b34801561069a57600080fd5b506105ff611973565b3480156106af57600080fd5b506106e56106be36600461252e565b600b6020526000908152604090208054600182015460028301546003909301549192909184565b6040805194855260208501939093529183015260608201526080016102a8565b34801561071157600080fd5b50610725610720366004612549565b6119ed565b6040516102a89c9b9a99989796959493929190612859565b34801561074957600080fd5b506103ab61075836600461252e565b600e6020526000908152604090205481565b34801561077657600080fd5b506103ab606481565b34801561078b57600080fd5b5061024e61079a3660046128d3565b611ae3565b3480156107ab57600080fd5b5061024e6107ba366004612549565b611fb0565b3480156107cb57600080fd5b506103ab6107da3660046125af565b61200f565b3480156107eb57600080fd5b5060055461031e906001600160a01b031681565b34801561080b57600080fd5b5061024e61202b565b61024e610822366004612549565b610874565b34801561083357600080fd5b5061024e61084236600461252e565b61216b565b34801561085357600080fd5b50610867610862366004612549565b6121e1565b6040516102a89190612949565b8060008111801561088757506003548111155b6108c85760405162461bcd60e51b815260206004820152600d60248201526c125b9d985b1a59081c9bdd5b99609a1b60448201526064015b60405180910390fd5b60008181526007602052604090206001015442101561091d5760405162461bcd60e51b8152602060048201526011602482015270149bdd5b99081b9bdd081cdd185c9d1959607a1b60448201526064016108bf565b60008181526007602052604090206002015442111561096c5760405162461bcd60e51b815260206004820152600b60248201526a149bdd5b9908195b99195960aa1b60448201526064016108bf565b60008181526007602052604090206006015460ff16156109c05760405162461bcd60e51b815260206004820152600f60248201526e149bdd5b9908199a5b985b1a5e9959608a1b60448201526064016108bf565b6109c8612242565b60003411610a0f5760405162461bcd60e51b81526020600482015260146024820152730446f6e6174696f6e206d757374206265203e20360641b60448201526064016108bf565b600082815260076020526040812060048101805491923492610a32908490612997565b90915550506040805160808101825233808252602080830187815234848601818152426060870190815260008b8152600886528881208054600180820183559183528783208a5160049092020180546001600160a01b0319166001600160a01b039092169190911781559551908601559151600285015551600390930192909255928152600e909152928320805492939192909190610ad2908490612997565b9091555050336000908152600f60209081526040808320878452600890925290912054610b01906001906129b0565b815460018101835560009283526020928390200155604051348152339186917fe555da28bdb778f65d22794d88927ebaeca03f7de9d1b7d39245bc8fb5ca078a910160405180910390a35050610b5660018055565b5050565b610b856040518060800160405280600081526020016000815260200160008152602001600081525090565b506001600160a01b03166000908152600b6020908152604091829020825160808101845281548152600182015492810192909252600281015492820192909252600390910154606082015290565b6000818152600d6020908152604091829020805483518184028101840190945280845260609392830182828015610c3357602002820191906000526020600020905b81546001600160a01b03168152600190910190602001808311610c15575b50505050509050919050565b610c4761229b565b6001600160a01b038116610c8f5760405162461bcd60e51b815260206004820152600f60248201526e496e76616c6964206164647265737360881b60448201526064016108bf565b600580546001600160a01b0319166001600160a01b0392909216919091179055565b600d6020528160005260406000208181548110610ccd57600080fd5b6000918252602090912001546001600160a01b03169150829050565b6005546001600160a01b03163314610d435760405162461bcd60e51b815260206004820152601960248201527f4e6f74206174746573746174696f6e20617574686f726974790000000000000060448201526064016108bf565b6000828152600960205260409020600881015460ff1615610d995760405162461bcd60e51b815260206004820152601060248201526f105b1c9958591e481d995c9a599a595960821b60448201526064016108bf565b6000825111610dde5760405162461bcd60e51b8152602060048201526011602482015270496e76616c6964207369676e617475726560781b60448201526064016108bf565b60088101805460ff19166001908117909155818101546001600160a01b03166000908152600b60205260408120909101805491610e1a836129c3565b90915550506001808201546001600160a01b03166000908152600b6020526040902081015460068301549091610e5090836129b0565b60018401546001600160a01b03166000908152600b6020526040902060020154610e7a91906129dc565b610e849190612997565b610e8e91906129f3565b600182810180546001600160a01b039081166000908152600b60209081526040918290206002019590955591549151928352169185917f4e4c58163587b8c8cf445c69be779a18e3e847feb29a0230d7897cab1b71fa00910160405180910390a3505050565b610efc61229b565b610f04612242565b600081815260076020526040902060028101544211610f575760405162461bcd60e51b815260206004820152600f60248201526e149bdd5b99081b9bdd08195b991959608a1b60448201526064016108bf565b600681015460ff1615610fa05760405162461bcd60e51b8152602060048201526011602482015270105b1c9958591e48199a5b985b1a5e9959607a1b60448201526064016108bf565b6000828152600a6020908152604080832080548251818502810185019093528083529192909190830182828015610ff657602002820191906000526020600020905b815481526020019060010190808311610fe2575b50505050509050600081511161103a5760405162461bcd60e51b81526020600482015260096024820152684e6f20636c61696d7360b81b60448201526064016108bf565b600080825167ffffffffffffffff811115611057576110576125d1565b604051908082528060200260200182016040528015611080578160200160208202803683370190505b50905060005b8351811015611171576000600960008684815181106110a7576110a7612a15565b6020026020010151815260200190815260200160002090508060080160009054906101000a900460ff1680156110e757506008810154610100900460ff16155b1561115e5760018101546001600160a01b03166000908152600c602090815260408083208a84529091528120546006830154909190611125836122f5565b61112f91906129dc565b90508085858151811061114457611144612a15565b60209081029190910101526111598187612997565b955050505b5080611169816129c3565b915050611086565b506000846004015485600301546111889190612997565b905060005b84518110156113ff576000600960008784815181106111ae576111ae612a15565b6020026020010151815260200190815260200160002090508060080160009054906101000a900460ff1680156111ee57506008810154610100900460ff16155b80156112135750600084838151811061120957611209612a15565b6020026020010151115b156113ec5760008585848151811061122d5761122d612a15565b60200260200101518561124091906129dc565b61124a91906129f3565b905080156113ea5760088201805461ff00191661010017905560098201819055600588018054829190600090611281908490612997565b909155505060018201546001600160a01b03166000908152600b6020526040812080548392906112b2908490612997565b909155505060018201546001600160a01b03166000908152600b6020526040812060030180548392906112e6908490612997565b909155505060018201546040516000916001600160a01b03169083908381818185875af1925050503d806000811461133a576040519150601f19603f3d011682016040523d82523d6000602084013e61133f565b606091505b50509050806113825760405162461bcd60e51b815260206004820152600f60248201526e151c985b9cd9995c8819985a5b1959608a1b60448201526064016108bf565b600183015488516001600160a01b03909116908990869081106113a7576113a7612a15565b60200260200101517fab7542bafced3da2d8c881cb2dd1de859fac7c20d3650d2902ad389a64e08883846040516113e091815260200190565b60405180910390a3505b505b50806113f7816129c3565b91505061118d565b5060068501805460ff19166001179055600585015460405187917f2b034c48d6d3c5fa40da8afd25e88ee8ad074a546e1a3f05a860c6106b99b82b9161144791815260200190565b60405180910390a2505050505061145d60018055565b50565b61146861229b565b61147061235d565b565b600f602052816000526040600020818154811061148e57600080fd5b90600052602060002001600091509150505481565b600860205281600052604060002081815481106114bf57600080fd5b600091825260209091206004909102018054600182015460028301546003909301546001600160a01b039092169450925084565b6115646040518061018001604052806000815260200160006001600160a01b0316815260200160008152602001606081526020016000815260200160008152602001600081526020016000815260200160001515815260200160001515815260200160008152602001600081525090565b6000828152600960209081526040918290208251610180810184528154815260018201546001600160a01b0316928101929092526002810154928201929092526003820180549192916060840191906115bc90612a2b565b80601f01602080910402602001604051908101604052809291908181526020018280546115e890612a2b565b80156116355780601f1061160a57610100808354040283529160200191611635565b820191906000526020600020905b81548152906001019060200180831161161857829003601f168201915b505050918352505060048201546020820152600582015460408201526006820154606082015260078201546080820152600882015460ff808216151560a08401526101009182900416151560c0830152600983015460e0830152600a9092015491015292915050565b6116a661229b565b61147060006123af565b606060086000838152602001908152602001600020805480602002602001604051908101604052809291908181526020016000905b82821015611742576000848152602090819020604080516080810182526004860290920180546001600160a01b031683526001808201548486015260028201549284019290925260030154606083015290835290920191016116e5565b505050509050919050565b61175561229b565b6114706123ff565b61176561229b565b600082116117a85760405162461bcd60e51b815260206004820152601060248201526f24b73b30b634b210323ab930ba34b7b760811b60448201526064016108bf565b803410156117f85760405162461bcd60e51b815260206004820152601a60248201527f496e73756666696369656e74206d61746368696e6720706f6f6c00000000000060448201526064016108bf565b60038054906000611808836129c3565b90915550429050600061181b8483612997565b604080516101008101825260038054808352602080840188815284860187815260608087018c815260006080890181815260a08a0182815260c08b0183815260e08c018481529984526007808a52938d90209b518c55965160018c0155945160028b01559151898901559051600489015591516005880155915160068701805460ff1916911515919091179055925194909201939093559054835187815292830185905292820187905292935090917f0b1ec92e2c042f4433769bc035846b6ff94397d5fd8ba47e37658193b09188c4910160405180910390a250505050565b6119036124cb565b50600090815260076020818152604092839020835161010081018552815481526001820154928101929092526002810154938201939093526003830154606082015260048301546080820152600583015460a0820152600683015460ff16151560c082015291015460e082015290565b61197b6124cb565b50600380546000908152600760208181526040928390208351610100810185528154815260018201549281019290925260028101549382019390935292820154606084015260048201546080840152600582015460a0840152600682015460ff16151560c0840152015460e082015290565b600960205260009081526040902080546001820154600283015460038401805493946001600160a01b0390931693919291611a2790612a2b565b80601f0160208091040260200160405190810160405280929190818152602001828054611a5390612a2b565b8015611aa05780601f10611a7557610100808354040283529160200191611aa0565b820191906000526020600020905b815481529060010190602001808311611a8357829003601f168201915b505050600484015460058501546006860154600787015460088801546009890154600a90990154979894979396509194509260ff8083169361010090930416918c565b84600081118015611af657506003548111155b611b325760405162461bcd60e51b815260206004820152600d60248201526c125b9d985b1a59081c9bdd5b99609a1b60448201526064016108bf565b600081815260076020526040902060010154421015611b875760405162461bcd60e51b8152602060048201526011602482015270149bdd5b99081b9bdd081cdd185c9d1959607a1b60448201526064016108bf565b600081815260076020526040902060020154421115611bd65760405162461bcd60e51b815260206004820152600b60248201526a149bdd5b9908195b99195960aa1b60448201526064016108bf565b60008181526007602052604090206006015460ff1615611c2a5760405162461bcd60e51b815260206004820152600f60248201526e149bdd5b9908199a5b985b1a5e9959608a1b60448201526064016108bf565b60008411611c7a5760405162461bcd60e51b815260206004820152601860248201527f4265666f72652073636f7265206d757374206265203e2030000000000000000060448201526064016108bf565b838311611cba5760405162461bcd60e51b815260206004820152600e60248201526d139bc81a5b5c1c9bdd995b595b9d60921b60448201526064016108bf565b6007821015611d0b5760405162461bcd60e51b815260206004820152601760248201527f4d696e696d756d2037206461797320726571756972656400000000000000000060448201526064016108bf565b600084611d1881866129b0565b611d239060646129dc565b611d2d91906129f3565b9050600654811015611d815760405162461bcd60e51b815260206004820152601860248201527f496e73756666696369656e7420696d70726f76656d656e74000000000000000060448201526064016108bf565b6004805460009182611d92836129c3565b9091555060408051610180810182528281523360208083019182528284018d8152606084018d8152608085018d905260a085018c905260c0850189905260e085018b90526000610100860181905261012086018190526101408601819052426101608701528781526009909352949091208351815591516001830180546001600160a01b0319166001600160a01b039092169190911790555160028201559151929350916003820190611e459082612ab4565b506080820151600482015560a0820151600582015560c0820151600682015560e082015160078201556101008083015160088301805461012086015161ffff1990911692151561ff00191692909217911515909202179055610140820151600982015561016090910151600a91820155600089815260209182526040808220805460018101825590835283832001849055338252600c83528082208b8352909252908120549003611f3e576000888152600d6020908152604080832080546001810182559084528284200180546001600160a01b031916331790558a8352600791829052822001805491611f38836129c3565b91905055505b336000908152600c602090815260408083208b84529091528120805491611f64836129c3565b90915550506040805189815260208101849052339183917f90cb8693ea798da15b789082f6878154baab0cce25b3bb95b9867140caf636db910160405180910390a35050505050505050565b611fb861229b565b600081118015611fc9575060648111155b61200a5760405162461bcd60e51b8152602060048201526012602482015271496e76616c69642070657263656e7461676560701b60448201526064016108bf565b600655565b600a602052816000526040600020818154811061148e57600080fd5b61203361229b565b60025460ff166120725760405162461bcd60e51b815260206004820152600a602482015269139bdd081c185d5cd95960b21b60448201526064016108bf565b600354156120d45760035460009081526007602052604090206006015460ff166120d45760405162461bcd60e51b815260206004820152601360248201527241637469766520726f756e642065786973747360681b60448201526064016108bf565b600080546040516001600160a01b039091169047908381818185875af1925050503d8060008114612121576040519150601f19603f3d011682016040523d82523d6000602084013e612126565b606091505b505090508061145d5760405162461bcd60e51b815260206004820152601160248201527015da5d1a191c985dd85b0819985a5b1959607a1b60448201526064016108bf565b61217361229b565b6001600160a01b0381166121d85760405162461bcd60e51b815260206004820152602660248201527f4f776e61626c653a206e6577206f776e657220697320746865207a65726f206160448201526564647265737360d01b60648201526084016108bf565b61145d816123af565b6000818152600a6020908152604091829020805483518184028101840190945280845260609392830182828015610c3357602002820191906000526020600020905b8154815260200190600101908083116122235750505050509050919050565b6002600154036122945760405162461bcd60e51b815260206004820152601f60248201527f5265656e7472616e637947756172643a207265656e7472616e742063616c6c0060448201526064016108bf565b6002600155565b6000546001600160a01b031633146114705760405162461bcd60e51b815260206004820181905260248201527f4f776e61626c653a2063616c6c6572206973206e6f7420746865206f776e657260448201526064016108bf565b60008160000361230757506000919050565b60006002612316846001612997565b61232091906129f3565b9050825b8082101561235657508060028161233b81876129f3565b6123459190612997565b61234f91906129f3565b9150612324565b9392505050565b61236561243c565b6002805460ff191690557f5db9ee0a495bf2e6ff9c91a7834c1ba4fdd244a5e8aa4e537bd38aeae4b073aa335b6040516001600160a01b03909116815260200160405180910390a1565b600080546001600160a01b038381166001600160a01b0319831681178455604051919092169283917f8be0079c531659141344cd1fd0a4f28419497f9722a3daafe3b4186f6b6457e09190a35050565b612407612485565b6002805460ff191660011790557f62e78cea01bee320cd4e420270b5ea74000d11b0c9f74754ebdbfc544b05a2586123923390565b60025460ff166114705760405162461bcd60e51b815260206004820152601460248201527314185d5cd8589b194e881b9bdd081c185d5cd95960621b60448201526064016108bf565b60025460ff16156114705760405162461bcd60e51b815260206004820152601060248201526f14185d5cd8589b194e881c185d5cd95960821b60448201526064016108bf565b604051806101000160405280600081526020016000815260200160008152602001600081526020016000815260200160008152602001600015158152602001600081525090565b80356001600160a01b038116811461252957600080fd5b919050565b60006020828403121561254057600080fd5b61235682612512565b60006020828403121561255b57600080fd5b5035919050565b6020808252825182820181905260009190848201906040850190845b818110156125a35783516001600160a01b03168352928401929184019160010161257e565b50909695505050505050565b600080604083850312156125c257600080fd5b50508035926020909101359150565b634e487b7160e01b600052604160045260246000fd5b600067ffffffffffffffff80841115612602576126026125d1565b604051601f8501601f19908116603f0116810190828211818310171561262a5761262a6125d1565b8160405280935085815286868601111561264357600080fd5b858560208301376000602087830101525050509392505050565b6000806040838503121561267057600080fd5b82359150602083013567ffffffffffffffff81111561268e57600080fd5b8301601f8101851361269f57600080fd5b6126ae858235602084016125e7565b9150509250929050565b600080604083850312156126cb57600080fd5b6126d483612512565b946020939093013593505050565b6000815180845260005b81811015612708576020818501810151868301820152016126ec565b506000602082860101526020601f19601f83011685010191505092915050565b60208152815160208201526000602083015161274f60408401826001600160a01b03169052565b506040830151606083015260608301516101808060808501526127766101a08501836126e2565b9150608085015160a085015260a085015160c085015260c085015160e085015260e08501516101008181870152808701519150506101206127ba8187018315159052565b86015190506101406127cf8682018315159052565b860151610160868101919091529095015193019290925250919050565b602080825282518282018190526000919060409081850190868401855b8281101561284c57815180516001600160a01b03168552868101518786015285810151868601526060908101519085015260809093019290850190600101612809565b5091979650505050505050565b8c81526001600160a01b038c166020820152604081018b90526101806060820181905260009061288b8382018d6126e2565b608084019b909b52505060a081019790975260c087019590955260e0860193909352901515610100850152151561012084015261014083015261016090910152949350505050565b600080600080600060a086880312156128eb57600080fd5b85359450602086013567ffffffffffffffff81111561290957600080fd5b8601601f8101881361291a57600080fd5b612929888235602084016125e7565b959895975050505060408401359360608101359360809091013592509050565b6020808252825182820181905260009190848201906040850190845b818110156125a357835183529284019291840191600101612965565b634e487b7160e01b600052601160045260246000fd5b808201808211156129aa576129aa612981565b92915050565b818103818111156129aa576129aa612981565b6000600182016129d5576129d5612981565b5060010190565b80820281158282048414176129aa576129aa612981565b600082612a1057634e487b7160e01b600052601260045260246000fd5b500490565b634e487b7160e01b600052603260045260246000fd5b600181811c90821680612a3f57607f821691505b602082108103612a5f57634e487b7160e01b600052602260045260246000fd5b50919050565b601f821115612aaf57600081815260208120601f850160051c81016020861015612a8c5750805b601f850160051c820191505b81811015612aab57828155600101612a98565b5050505b505050565b815167ffffffffffffffff811115612ace57612ace6125d1565b612ae281612adc8454612a2b565b84612a65565b602080601f831160018114612b175760008415612aff5750858301515b600019600386901b1c1916600185901b178555612aab565b600085815260208120601f198616915b82811015612b4657888601518255948401946001909101908401612b27565b5085821015612b645787850151600019600388901b60f8161c191681555b5050505050600190811b0190555056fea2646970667358221220eecf0745d9c472cfaf7d596bc1ab217d875b1ceedb33a92b5be3a0fd243b069b64736f6c63430008140033",
  "linkReferences": {},
  "deployedLinkReferences": {}
}