{
  "_format": "hh-sol-artifact-1",
  "contractName": "TutoringEscrow",
  "sourceName": "contracts_src/TutoringEscrow.sol",
  "abi": [
    {
      "inputs": [
        {
          "internalType": "address",
          "name": "_attestationAuthority",
          "type": "address"
        }
      ],
      "stateMutability": "nonpayable",
      "type": "constructor"
    },
    {
      "anonymous": false,
      "inputs": [
        {
          "indexed": true,
          "internalType": "uint256",
          "name": "sessionId",
          "type": "uint256"
        },
        {
          "indexed": true,
          "internalType": "address",
          "name": "raiser",
          "type": "address"
        }
      ],
      "name": "DisputeRaised",
      "type": "event"
    },
    {
      "anonymous": false,
      "inputs": [
        {
          "indexed": true,
          "internalType": "uint256",
          "name": "sessionId",
          "type": "uint256"
        },
        {
          "indexed": true,
          "internalType": "address",
          "name": "tutor",
          "type": "address"
        },
        {
          "indexed": false,
          "internalType": "uint256",
          "name": "tutorAmount",
          "type": "uint256"
        },
        {
          "indexed": false,
          "internalType": "uint256",
          "name": "platformFee",
          "type": "uint256"
        }
      ],
      "name": "FundsReleased",
      "type": "event"
    },
    {
      "anonymous": false,
      "inputs": [
        {
          "indexed": true,
          "internalType": "address",
          "name": "previousOwner",
          "type": "address"
        },
        {
          "indexed": true,
          "internalType": "address",
          "name": "newOwner",
          "type": "address"
        }
      ],
      "name": "OwnershipTransferred",
      "type": "event"
    },
    {
      "anonymous": false,
      "inputs": [
        {
          "indexed": false,
          "internalType": "address",
          "name": "account",
          "type": "address"
        }
      ],
      "name": "Paused",
      "type": "event"
    },
    {
      "anonymous": false,
      "inputs": [
        {
          "indexed": true,
          "internalType": "uint256",
          "name": "sessionId",
          "type": "uint256"
        },
        {
          "indexed": true,
          "internalType": "address",
          "name": "tutor",
          "type": "address"
        }
      ],
      "name": "SessionAccepted",
      "type": "event"
    },
    {
      "anonymous": false,
      "inputs": [
        {
          "indexed": true,
          "internalType": "uint256",
          "name": "sessionId",
          "type": "uint256"
        },
        {
          "indexed": true,
          "internalType": "address",
          "name": "learner",
          "type": "address"
        }
      ],
      "name": "SessionCancelled",
      "type": "event"
    },
    {
      "anonymous": false,
      "inputs": [
        {
          "indexed": true,
          "internalType": "uint256",
          "name": "sessionId",
          "type": "uint256"
        },
        {
          "indexed": true,
          "internalType": "address",
          "name": "tutor",
          "type": "address"
        },
        {
          "indexed": false,
          "internalType": "uint256",
          "name": "amount",
          "type": "uint256"
        }
      ],
      "name": "SessionCompleted",
      "type": "event"
    },
    {
      "anonymous": false,
      "inputs": [
        {
          "indexed": true,
          "internalType": "uint256",
          "name": "sessionId",
          "type": "uint256"
        },
        {
          "indexed": true,
          "internalType": "address",
          "name": "learner",
          "type": "address"
        },
        {
          "indexed": false,
          "internalType": "uint256",
          "name": "amount",
          "type": "uint256"
        },
        {
          "indexed": false,
          "internalType": "string",
          "name": "serviceType",
          "type": "string"
        }
      ],
      "name": "SessionCreated",
      "type": "event"
    },
    {
      "anonymous": false,
      "inputs": [
        {
          "indexed": true,
          "internalType": "uint256",
          "name": "sessionId",
          "type": "uint256"
        },
        {
          "indexed": true,
          "internalType": "address",
          "name": "tutor",
          "type": "address"
        }
      ],
      "name": "SessionSubmitted",
      "type": "event"
    },
    {
      "anonymous": false,
      "inputs": [
        {
          "indexed": false,
          "internalType": "address",
          "name": "account",
          "type": "address"
        }
      ],
      "name": "Unpaused",
      "type": "event"
    },
    {
      "inputs": [
        {
          "internalType": "uint256",
          "name": "_sessionId",
          "type": "uint256"
        }
      ],
      "name": "acceptSession",
      "outputs": [],
      "stateMutability": "nonpayable",
      "type": "function"
    },
    {
      "inputs": [],
      "name": "attestationAuthority",
      "outputs": [
        {
          "internalType": "address",
          "name": "",
          "type": "address"
        }
      ],
      "stateMutability": "view",
      "type": "function"
    },
    {
      "inputs": [
        {
          "internalType": "uint256",
          "name": "_sessionId",
          "type": "uint256"
        }
      ],
      "name": "cancelSession",
      "outputs": [],
      "stateMutability": "nonpayable",
      "type": "function"
    },
    {
      "inputs": [
        {
          "internalType": "uint256",
          "name": "_sessionId",
          "type": "uint256"
        },
        {
          "internalType": "bytes",
          "name": "_signature",
          "type": "bytes"
        }
      ],
      "name": "completeSession",
      "outputs": [],
      "stateMutability": "nonpayable",
      "type": "function"
    },
    {
      "inputs": [
        {
          "internalType": "address",
          "name": "_tutor",
          "type": "address"
        },
        {
          "internalType": "string",
          "name": "_serviceType",
          "type": "string"
        },
        {
          "internalType": "string",
          "name": "_description",
          "type": "string"
        }
      ],
      "name": "createSession",
      "outputs": [
        {
          "internalType": "uint256",
          "name": "",
          "type": "uint256"
        }
      ],
      "stateMutability": "payable",
      "type": "function"
    },
    {
      "inputs": [],
      "name": "emergencyWithdraw",
      "outputs": [],
      "stateMutability": "nonpayable",
      "type": "function"
    },
    {
      "inputs": [
        {
          "internalType": "address",
          "name": "_learner",
          "type": "address"
        }
      ],
      "name": "getLearnerSessions",
      "outputs": [
        {
          "internalType": "uint256[]",
          "name": "",
          "type": "uint256[]"
        }
      ],
      "stateMutability": "view",
      "type": "function"
    },
    {
      "inputs": [
        {
          "internalType": "uint256",
          "name": "_sessionId",
          "type": "uint256"
        }
      ],
      "name": "getSession",
      "outputs": [
        {
          "components": [
            {
              "internalType": "uint256",
              "name": "id",
              "type": "uint256"
            },
            {
              "internalType": "address",
              "name": "learner",
              "type": "address"
            },
            {
              "internalType": "address",
              "name": "tutor",
              "type": "address"
            },
            {
              "internalType": "uint256",
              "name": "amount",
              "type": "uint256"
            },
            {
              "internalType": "string",
              "name": "serviceType",
              "type": "string"
            },
            {
              "internalType": "string",
              "name": "description",
              "type": "string"
            },
            {
              "internalType": "uint256",
              "name": "createdAt",
              "type": "uint256"
            },
            {
              "internalType": "uint256",
              "name": "completedAt",
              "type": "uint256"
            },
            {
              "internalType": "enum TutoringEscrow.SessionStatus",
              "name": "status",
              "type": "uint8"
            },
            {
              "internalType": "bool",
              "name": "fundsReleased",
              "type": "bool"
            }
          ],
          "internalType": "struct TutoringEscrow.Session",
          "name": "",
          "type": "tuple"
        }
      ],
      "stateMutability": "view",
      "type": "function"
    },
    {
      "inputs": [
        {
          "internalType": "address",
          "name": "_tutor",
          "type": "address"
        }
      ],
      "name": "getTutorSessions",
      "outputs": [
        {
          "internalType": "uint256[]",
          "name": "",
          "type": "uint256[]"
        }
      ],
      "stateMutability": "view",
      "type": "function"
    },
    {
      "inputs": [
        {
          "internalType": "address",
          "name": "_tutor",
          "type": "address"
        }
      ],
      "name": "getTutorStats",
      "outputs": [
        {
          "internalType": "uint256",
          "name": "completed",
          "type": "uint256"
        },
        {
          "internalType": "uint256",
          "name": "earnings",
          "type": "uint256"
        }
      ],
      "stateMutability": "view",
      "type": "function"
    },
    {
      "inputs": [
        {
          "internalType": "address",
          "name": "",
          "type": "address"
        },
        {
          "internalType": "uint256",
          "name": "",
          "type": "uint256"
        }
      ],
      "name": "learnerSessions",
      "outputs": [
        {
          "internalType": "uint256",
          "name": "",
          "type": "uint256"
        }
      ],
      "stateMutability": "view",
      "type": "function"
    },
    {
      "inputs": [],
      "name": "nextSessionId",
      "outputs": [
        {
          "internalType": "uint256",
          "name": "",
          "type": "uint256"
        }
      ],
      "stateMutability": "view",
      "type": "function"
    },
    {
      "inputs": [],
      "name": "owner",
      "outputs": [
        {
          "internalType": "address",
          "name": "",
          "type": "address"
        }
      ],
      "stateMutability": "view",
      "type": "function"
    },
    {
      "inputs": [],
      "name": "pause",
      "outputs": [],
      "stateMutability": "nonpayable",
      "type": "function"
    },
    {
      "inputs": [],
      "name": "paused",
      "outputs": [
        {
          "internalType": "bool",
          "name": "",
          "type": "bool"
        }
      ],
      "stateMutability": "view",
      "type": "function"
    },
    {
      "inputs": [],
      "name": "platformFeePercent",
      "outputs": [
        {
          "internalType": "uint256",
          "name": "",
          "type": "uint256"
        }
      ],
      "stateMutability": "view",
      "type": "function"
    },
    {
      "inputs": [
        {
          "internalType": "uint256",
          "name": "_sessionId",
          "type": "uint256"
        }
      ],
      "name": "raiseDispute",
      "outputs": [],
      "stateMutability": "nonpayable",
      "type": "function"
    },
    {
      "inputs": [],
      "name": "renounceOwnership",
      "outputs": [],
      "stateMutability": "nonpayable",
      "type": "function"
    },
    {
      "inputs": [],
      "name": "reputationSBT",
      "outputs": [
        {
          "internalType": "address",
          "name": "",
          "type": "address"
        }
      ],
      "stateMutability": "view",
      "type": "function"
    },
    {
      "inputs": [
        {
          "internalType": "uint256",
          "name": "_sessionId",
          "type": "uint256"
        },
        {
          "internalType": "bool",
          "name": "_refundToLearner",
          "type": "bool"
        }
      ],
      "name": "resolveDispute",
      "outputs": [],
      "stateMutability": "nonpayable",
      "type": "function"
    },
    {
      "inputs": [
        {
          "internalType": "uint256",
          "name": "",
          "type": "uint256"
        }
      ],
      "name": "sessions",
      "outputs": [
        {
          "internalType": "uint256",
          "name": "id",
          "type": "uint256"
        },
        {
          "internalType": "address",
          "name": "learner",
          "type": "address"
        },
        {
          "internalType": "address",
          "name": "tutor",
          "type": "address"
        },
        {
          "internalType": "uint256",
          "name": "amount",
          "type": "uint256"
        },
        {
          "internalType": "string",
          "name": "serviceType",
          "type": "string"
        },
        {
          "internalType": "string",
          "name": "description",
          "type": "string"
        },
        {
          "internalType": "uint256",
          "name": "createdAt",
          "type": "uint256"
        },
        {
          "internalType": "uint256",
          "name": "completedAt",
          "type": "uint256"
        },
        {
          "internalType": "enum TutoringEscrow.SessionStatus",
          "name": "status",
          "type": "uint8"
        },
        {
          "internalType": "bool",
          "name": "fundsReleased",
          "type": "bool"
        }
      ],
      "stateMutability": "view",
      "type": "function"
    },
    {
      "inputs": [
        {
          "internalType": "address",
          "name": "_authority",
          "type": "address"
        }
      ],
      "name": "setAttestationAuthority",
      "outputs": [],
      "stateMutability": "nonpayable",
      "type": "function"
    },
    {
      "inputs": [
        {
          "internalType": "uint256",
          "name": "_feePercent",
          "type": "uint256"
        }
      ],
      "name": "setPlatformFee",
      "outputs": [],
      "stateMutability": "nonpayable",
      "type": "function"
    },
    {
      "inputs": [
        {
          "internalType": "address",
          "name": "_sbt",
          "type": "address"
        }
      ],
      "name": "setReputationSBT",
      "outputs": [],
      "stateMutability": "nonpayable",
      "type": "function"
    },
    {
      "inputs": [
        {
          "internalType": "uint256",
          "name": "_sessionId",
          "type": "uint256"
        }
      ],
      "name": "submitSession",
      "outputs": [],
      "stateMutability": "nonpayable",
      "type": "function"
    },
    {
      "inputs": [
        {
          "internalType": "address",
          "name": "newOwner",
          "type": "address"
        }
      ],
      "name": "transferOwnership",
      "outputs": [],
      "stateMutability": "nonpayable",
      "type": "function"
    },
    {
      "inputs": [
        {
          "internalType": "address",
          "name": "",
          "type": "address"
        }
      ],
      "name": "tutorCompletedSessions",
      "outputs": [
        {
          "internalType": "uint256",
          "name": "",
          "type": "uint256"
        }
      ],
      "stateMutability": "view",
      "type": "function"
    },
    {
      "inputs": [
        {
          "internalType": "address",
          "name": "",
          "type": "address"
        }
      ],
      "name": "tutorEarnings",
      "outputs": [
        {
          "internalType": "uint256",
          "name": "",
          "type": "uint256"
        }
      ],
      "stateMutability": "view",
      "type": "function"
    },
    {
      "inputs": [
        {
          "internalType": "address",
          "name": "",
          "type": "address"
        },
        {
          "internalType": "uint256",
          "name": "",
          "type": "uint256"
        }
      ],
      "name": "tutorSessions",
      "outputs": [
        {
          "internalType": "uint256",
          "name": "",
          "type": "uint256"
        }
      ],
      "stateMutability": "view",
      "type": "function"
    },
    {
      "inputs": [],
      "name": "unpause",
      "outputs": [],
      "stateMutability": "nonpayable",
      "type": "function"
    }
  ],
  "bytecode": "0x6080604052600160035560056004553480156200001b57600080fd5b5060405162002889380380620028898339810160408190526200003e9162000128565b6200004933620000d8565b600180556002805460ff191690556001600160a01b038116620000b25760405162461bcd60e51b815260206004820152601d60248201527f496e76616c6964206174746573746174696f6e20617574686f72697479000000604482015260640160405180910390fd5b600580546001600160a01b0319166001600160a01b03929092169190911790556200015a565b600080546001600160a01b038381166001600160a01b0319831681178455604051919092169283917f8be0079c531659141344cd1fd0a4f28419497f9722a3daafe3b4186f6b6457e09190a35050565b6000602082840312156200013b57600080fd5b81516001600160a01b03811681146200015357600080fd5b9392505050565b61271f806200016a6000396000f3fe6080604052600436106101cd5760003560e01c806385b71844116100f7578063c0424f4411610095578063ed1f479e11610064578063ed1f479e1461053d578063f2fde38b1461055d578063f527caf21461057d578063f706e9011461059d57600080fd5b8063c0424f44146104bb578063d861643c146104e8578063db2e21bc14610508578063e27f93701461051d57600080fd5b80638da5cb5b116100d15780638da5cb5b14610429578063923e33791461045b578063a56ce2a91461047b578063a5c1674e1461049b57600080fd5b806385b71844146103d35780638c32c4a7146103f35780638c639a851461041357600080fd5b8063402ff0db1161016f57806361f2ff6f1161013e57806361f2ff6f14610346578063715018a61461037357806383c4b7a3146103885780638456cb59146103be57600080fd5b8063402ff0db146102c057806349bbf7da146102ed5780635a01e629146103035780635c975abb1461032357600080fd5b8063224d2baa116101ab578063224d2baa1461024b578063232e03b71461026b57806334b25ee21461028b5780633f4ba83a146102ab57600080fd5b8063016374cc146101d25780631165706f1461020857806312e8e2c314610229575b600080fd5b3480156101de57600080fd5b506101f26101ed3660046120a6565b6105f5565b6040516101ff91906120c1565b60405180910390f35b61021b6102163660046121b1565b610661565b6040519081526020016101ff565b34801561023557600080fd5b50610249610244366004612225565b610960565b005b34801561025757600080fd5b506102496102663660046120a6565b6109ad565b34801561027757600080fd5b506102496102863660046120a6565b610a1f565b34801561029757600080fd5b506102496102a636600461223e565b610a91565b3480156102b757600080fd5b50610249610e64565b3480156102cc57600080fd5b506102e06102db366004612225565b610e76565b6040516101ff91906122f1565b3480156102f957600080fd5b5061021b60035481565b34801561030f57600080fd5b5061024961031e366004612225565b61105b565b34801561032f57600080fd5b5060025460ff1660405190151581526020016101ff565b34801561035257600080fd5b5061021b6103613660046120a6565b600a6020526000908152604090205481565b34801561037f57600080fd5b506102496111fa565b34801561039457600080fd5b506103a86103a3366004612225565b61120c565b6040516101ff9a999897969594939291906123b3565b3480156103ca57600080fd5b50610249611380565b3480156103df57600080fd5b506102496103ee366004612436565b611390565b3480156103ff57600080fd5b5061021b61040e366004612491565b6117de565b34801561041f57600080fd5b5061021b60045481565b34801561043557600080fd5b506000546001600160a01b03165b6040516001600160a01b0390911681526020016101ff565b34801561046757600080fd5b50600654610443906001600160a01b031681565b34801561048757600080fd5b506101f26104963660046120a6565b61180f565b3480156104a757600080fd5b506102496104b6366004612225565b611879565b3480156104c757600080fd5b5061021b6104d63660046120a6565b600b6020526000908152604090205481565b3480156104f457600080fd5b50600554610443906001600160a01b031681565b34801561051457600080fd5b506102496119c5565b34801561052957600080fd5b50610249610538366004612225565b611aa6565b34801561054957600080fd5b50610249610558366004612225565b611c6e565b34801561056957600080fd5b506102496105783660046120a6565b611d61565b34801561058957600080fd5b5061021b610598366004612491565b611dd7565b3480156105a957600080fd5b506105e06105b83660046120a6565b6001600160a01b03166000908152600b6020908152604080832054600a909252909120549091565b604080519283526020830191909152016101ff565b6001600160a01b03811660009081526008602090815260409182902080548351818402810184019094528084526060939283018282801561065557602002820191906000526020600020905b815481526020019060010190808311610641575b50505050509050919050565b600061066b611df3565b610673611e39565b600034116106bb5760405162461bcd60e51b815260206004820152601060248201526f14185e5b595b9d081c995c5d5a5c995960821b60448201526064015b60405180910390fd5b6001600160a01b038416330361070a5760405162461bcd60e51b815260206004820152601460248201527321b0b73737ba103434b932903cb7bab939b2b63360611b60448201526064016106b2565b600380546000918261071b836124d1565b919050559050604051806101400160405280828152602001336001600160a01b03168152602001866001600160a01b031681526020013481526020018581526020018481526020014281526020016000815260200160006005811115610783576107836122b9565b8152600060209182018190528381526007825260409081902083518155918301516001830180546001600160a01b03199081166001600160a01b039384161790915591840151600284018054909316911617905560608201516003820155608082015160048201906107f59082612573565b5060a0820151600582019061080a9082612573565b5060c0820151600682015560e0820151600782015561010082015160088201805460ff19166001836005811115610843576108436122b9565b02179055506101209190910151600891820180549115156101000261ff00199092169190911790553360009081526020918252604081208054600181018255908252919020018190556001600160a01b0385161561090a576001600160a01b0385166000818152600960209081526040808320805460018082018355918552838520018690558584526007909252808320600801805460ff19169092179091555183917f310352570963ce5be6f3517ef2190007b720842ad28233c9707f2cacce3f79de91a35b336001600160a01b0316817ff30e8a7a742ef619c76feb58ab0268d493c8c65ee455067d7343970678974cb33487604051610946929190612633565b60405180910390a3905061095960018055565b9392505050565b610968611e92565b60148111156109a85760405162461bcd60e51b815260206004820152600c60248201526b08ccaca40e8dede40d0d2ced60a31b60448201526064016106b2565b600455565b6109b5611e92565b6001600160a01b0381166109fd5760405162461bcd60e51b815260206004820152600f60248201526e496e76616c6964206164647265737360881b60448201526064016106b2565b600680546001600160a01b0319166001600160a01b0392909216919091179055565b610a27611e92565b6001600160a01b038116610a6f5760405162461bcd60e51b815260206004820152600f60248201526e496e76616c6964206164647265737360881b60448201526064016106b2565b600580546001600160a01b0319166001600160a01b0392909216919091179055565b610a99611e92565b610aa1611e39565b60008281526007602052604090206004600882015460ff166005811115610aca57610aca6122b9565b14610b065760405162461bcd60e51b815260206004820152600c60248201526b139bdd08191a5cdc1d5d195960a21b60448201526064016106b2565b6008810154610100900460ff1615610b305760405162461bcd60e51b81526004016106b290612654565b60088101805461ff0019166101001790558115610bf55760088101805460ff19166005179055600181015460038201546040516000926001600160a01b031691908381818185875af1925050503d8060008114610ba9576040519150601f19603f3d011682016040523d82523d6000602084013e610bae565b606091505b5050905080610bef5760405162461bcd60e51b815260206004820152600d60248201526c1499599d5b990819985a5b1959609a1b60448201526064016106b2565b50610e56565b60088101805460ff1916600390811790915542600783015560045490820154600091606491610c249190612684565b610c2e91906126a1565b90506000818360030154610c4291906126c3565b60028401546001600160a01b03166000908152600a6020526040812080549293508392909190610c739084906126d6565b909155505060028301546001600160a01b03166000908152600b60205260408120805491610ca0836124d1565b909155505060028301546040516000916001600160a01b03169083908381818185875af1925050503d8060008114610cf4576040519150601f19603f3d011682016040523d82523d6000602084013e610cf9565b606091505b5050905080610d3c5760405162461bcd60e51b815260206004820152600f60248201526e151c985b9cd9995c8819985a5b1959608a1b60448201526064016106b2565b600080546040516001600160a01b039091169085908381818185875af1925050503d8060008114610d89576040519150601f19603f3d011682016040523d82523d6000602084013e610d8e565b606091505b5050905080610dd55760405162461bcd60e51b8152602060048201526013602482015272119959481d1c985b9cd9995c8819985a5b1959606a1b60448201526064016106b2565b6006546001600160a01b031615610e51576006546002860154604051631287995760e31b81526001600160a01b039182166004820152602481018a905291169063943ccab890604401600060405180830381600087803b158015610e3857600080fd5b505af1158015610e4c573d6000803e3d6000fd5b505050505b505050505b50610e6060018055565b5050565b610e6c611e92565b610e74611eec565b565b610e7e612014565b6000828152600760209081526040918290208251610140810184528154815260018201546001600160a01b039081169382019390935260028201549092169282019290925260038201546060820152600482018054919291608084019190610ee5906124ea565b80601f0160208091040260200160405190810160405280929190818152602001828054610f11906124ea565b8015610f5e5780601f10610f3357610100808354040283529160200191610f5e565b820191906000526020600020905b815481529060010190602001808311610f4157829003601f168201915b50505050508152602001600582018054610f77906124ea565b80601f0160208091040260200160405190810160405280929190818152602001828054610fa3906124ea565b8015610ff05780601f10610fc557610100808354040283529160200191610ff0565b820191906000526020600020905b815481529060010190602001808311610fd357829003601f168201915b50505091835250506006820154602082015260078201546040820152600882015460609091019060ff16600581111561102b5761102b6122b9565b600581111561103c5761103c6122b9565b815260089190910154610100900460ff16151560209091015292915050565b611063611df3565b600081815260076020526040812090600882015460ff16600581111561108b5761108b6122b9565b146110d05760405162461bcd60e51b815260206004820152601560248201527453657373696f6e206e6f7420617661696c61626c6560581b60448201526064016106b2565b60028101546001600160a01b03161561112b5760405162461bcd60e51b815260206004820152601860248201527f53657373696f6e20616c72656164792061737369676e6564000000000000000060448201526064016106b2565b6001810154336001600160a01b03909116036111815760405162461bcd60e51b815260206004820152601560248201527421b0b73737ba103a3aba37b9103cb7bab939b2b63360591b60448201526064016106b2565b6002810180546001600160a01b031916331790556008810180546001919060ff19168280021790555033600081815260096020908152604080832080546001810182559084529183209091018590555184917f310352570963ce5be6f3517ef2190007b720842ad28233c9707f2cacce3f79de91a35050565b611202611e92565b610e746000611f3e565b6007602052600090815260409020805460018201546002830154600384015460048501805494956001600160a01b03948516959390941693919261124f906124ea565b80601f016020809104026020016040519081016040528092919081815260200182805461127b906124ea565b80156112c85780601f1061129d576101008083540402835291602001916112c8565b820191906000526020600020905b8154815290600101906020018083116112ab57829003601f168201915b5050505050908060050180546112dd906124ea565b80601f0160208091040260200160405190810160405280929190818152602001828054611309906124ea565b80156113565780601f1061132b57610100808354040283529160200191611356565b820191906000526020600020905b81548152906001019060200180831161133957829003601f168201915b50505050600683015460078401546008909401549293909290915060ff808216916101009004168a565b611388611e92565b610e74611f8e565b6005546001600160a01b031633146113ea5760405162461bcd60e51b815260206004820152601960248201527f4e6f74206174746573746174696f6e20617574686f726974790000000000000060448201526064016106b2565b6113f2611e39565b60008281526007602052604090206002600882015460ff16600581111561141b5761141b6122b9565b1461145d5760405162461bcd60e51b81526020600482015260126024820152714e6f742070656e64696e672072657669657760701b60448201526064016106b2565b6008810154610100900460ff16156114875760405162461bcd60e51b81526004016106b290612654565b60008251116114cc5760405162461bcd60e51b8152602060048201526011602482015270496e76616c6964207369676e617475726560781b60448201526064016106b2565b6000606460045483600301546114e29190612684565b6114ec91906126a1565b9050600081836003015461150091906126c3565b60088401805442600787015561ffff191661010317905560028401546001600160a01b03166000908152600a60205260408120805492935083929091906115489084906126d6565b909155505060028301546001600160a01b03166000908152600b60205260408120805491611575836124d1565b909155505060028301546040516000916001600160a01b03169083908381818185875af1925050503d80600081146115c9576040519150601f19603f3d011682016040523d82523d6000602084013e6115ce565b606091505b505090508061161f5760405162461bcd60e51b815260206004820152601860248201527f5472616e7366657220746f207475746f72206661696c6564000000000000000060448201526064016106b2565b600080546040516001600160a01b039091169085908381818185875af1925050503d806000811461166c576040519150601f19603f3d011682016040523d82523d6000602084013e611671565b606091505b50509050806116c25760405162461bcd60e51b815260206004820152601c60248201527f506c6174666f726d20666565207472616e73666572206661696c65640000000060448201526064016106b2565b6006546001600160a01b03161561173e576006546002860154604051631287995760e31b81526001600160a01b039182166004820152602481018a905291169063943ccab890604401600060405180830381600087803b15801561172557600080fd5b505af1158015611739573d6000803e3d6000fd5b505050505b60028501546040518481526001600160a01b039091169088907f3a70cf9486a47785aa32e46b394ef466c0266c280884e6d630a791c2fd5922e49060200160405180910390a3600285015460408051858152602081018790526001600160a01b039092169189917f93e901cc5aea20ea9655887d9290a3215a5b3999c024812f4e4b749f7534349c910160405180910390a35050505050610e6060018055565b600960205281600052604060002081815481106117fa57600080fd5b90600052602060002001600091509150505481565b6001600160a01b03811660009081526009602090815260409182902080548351818402810184019094528084526060939283018282801561065557602002820191906000526020600020908154815260200190600101908083116106415750505050509050919050565b600081815260076020526040902060018101546001600160a01b03163314806118ae575060028101546001600160a01b031633145b6118fa5760405162461bcd60e51b815260206004820152601760248201527f4e6f7420696e766f6c76656420696e2073657373696f6e00000000000000000060448201526064016106b2565b6001600882015460ff166005811115611915576119156122b9565b148061193957506002600882015460ff166005811115611937576119376122b9565b145b6119855760405162461bcd60e51b815260206004820152601a60248201527f496e76616c69642073746174757320666f72206469737075746500000000000060448201526064016106b2565b60088101805460ff19166004179055604051339083907f84a477df8a28a4276ca6dee4458a06c3015f30c477d9c949ede4e13ff8a552b490600090a35050565b6119cd611e92565b60025460ff16611a0c5760405162461bcd60e51b815260206004820152600a602482015269139bdd081c185d5cd95960b21b60448201526064016106b2565b600080546040516001600160a01b039091169047908381818185875af1925050503d8060008114611a59576040519150601f19603f3d011682016040523d82523d6000602084013e611a5e565b606091505b5050905080611aa35760405162461bcd60e51b815260206004820152601160248201527015da5d1a191c985dd85b0819985a5b1959607a1b60448201526064016106b2565b50565b611aae611e39565b600081815260076020526040902060018101546001600160a01b03163314611b0a5760405162461bcd60e51b815260206004820152600f60248201526e2737ba103a3432903632b0b93732b960891b60448201526064016106b2565b6000600882015460ff166005811115611b2557611b256122b9565b14611b625760405162461bcd60e51b815260206004820152600d60248201526c10d85b9b9bdd0818d85b98d95b609a1b60448201526064016106b2565b6008810154610100900460ff1615611b8c5760405162461bcd60e51b81526004016106b290612654565b60088101805461ffff1916610105179055600181015460038201546040516000926001600160a01b031691908381818185875af1925050503d8060008114611bf0576040519150601f19603f3d011682016040523d82523d6000602084013e611bf5565b606091505b5050905080611c365760405162461bcd60e51b815260206004820152600d60248201526c1499599d5b990819985a5b1959609a1b60448201526064016106b2565b604051339084907f6065c5b68ef303a60e270e703f4fb95f8001292f7df8d4dcfacb0620acd9144d90600090a35050611aa360018055565b600081815260076020526040902060028101546001600160a01b03163314611cc85760405162461bcd60e51b815260206004820152600d60248201526c2737ba103a3432903a3aba37b960991b60448201526064016106b2565b6001600882015460ff166005811115611ce357611ce36122b9565b14611d215760405162461bcd60e51b815260206004820152600e60248201526d496e76616c69642073746174757360901b60448201526064016106b2565b60088101805460ff19166002179055604051339083907f75fb284e749c556b3958bc51fe80843881825ed22461d5a56e6ecbff8ff5a80b90600090a35050565b611d69611e92565b6001600160a01b038116611dce5760405162461bcd60e51b815260206004820152602660248201527f4f776e61626c653a206e6577206f776e657220697320746865207a65726f206160448201526564647265737360d01b60648201526084016106b2565b611aa381611f3e565b600860205281600052604060002081815481106117fa57600080fd5b60025460ff1615610e745760405162461bcd60e51b815260206004820152601060248201526f14185d5cd8589b194e881c185d5cd95960821b60448201526064016106b2565b600260015403611e8b5760405162461bcd60e51b815260206004820152601f60248201527f5265656e7472616e637947756172643a207265656e7472616e742063616c6c0060448201526064016106b2565b6002600155565b6000546001600160a01b03163314610e745760405162461bcd60e51b815260206004820181905260248201527f4f776e61626c653a2063616c6c6572206973206e6f7420746865206f776e657260448201526064016106b2565b611ef4611fcb565b6002805460ff191690557f5db9ee0a495bf2e6ff9c91a7834c1ba4fdd244a5e8aa4e537bd38aeae4b073aa335b6040516001600160a01b03909116815260200160405180910390a1565b600080546001600160a01b038381166001600160a01b0319831681178455604051919092169283917f8be0079c531659141344cd1fd0a4f28419497f9722a3daafe3b4186f6b6457e09190a35050565b611f96611df3565b6002805460ff191660011790557f62e78cea01bee320cd4e420270b5ea74000d11b0c9f74754ebdbfc544b05a258611f213390565b60025460ff16610e745760405162461bcd60e51b815260206004820152601460248201527314185d5cd8589b194e881b9bdd081c185d5cd95960621b60448201526064016106b2565b6040518061014001604052806000815260200160006001600160a01b0316815260200160006001600160a01b0316815260200160008152602001606081526020016060815260200160008152602001600081526020016000600581111561207d5761207d6122b9565b8152600060209091015290565b80356001600160a01b03811681146120a157600080fd5b919050565b6000602082840312156120b857600080fd5b6109598261208a565b6020808252825182820181905260009190848201906040850190845b818110156120f9578351835292840192918401916001016120dd565b50909695505050505050565b634e487b7160e01b600052604160045260246000fd5b600067ffffffffffffffff8084111561213657612136612105565b604051601f8501601f19908116603f0116810190828211818310171561215e5761215e612105565b8160405280935085815286868601111561217757600080fd5b858560208301376000602087830101525050509392505050565b600082601f8301126121a257600080fd5b6109598383356020850161211b565b6000806000606084860312156121c657600080fd5b6121cf8461208a565b9250602084013567ffffffffffffffff808211156121ec57600080fd5b6121f887838801612191565b9350604086013591508082111561220e57600080fd5b5061221b86828701612191565b9150509250925092565b60006020828403121561223757600080fd5b5035919050565b6000806040838503121561225157600080fd5b823591506020830135801515811461226857600080fd5b809150509250929050565b6000815180845260005b818110156122995760208185018101518683018201520161227d565b506000602082860101526020601f19601f83011685010191505092915050565b634e487b7160e01b600052602160045260246000fd5b600681106122ed57634e487b7160e01b600052602160045260246000fd5b9052565b60208152815160208201526000602083015161231860408401826001600160a01b03169052565b5060408301516001600160a01b0381166060840152506060830151608083015260808301516101408060a0850152612354610160850183612273565b915060a0850151601f198584030160c08601526123718382612273565b92505060c085015160e085015260e08501516101008181870152808701519150506101206123a1818701836122cf565b90950151151593019290925250919050565b8a81526001600160a01b038a811660208301528916604082015260608101889052610140608082018190526000906123ed8382018a612273565b905082810360a08401526124018189612273565b9150508560c08301528460e083015261241e6101008301856122cf565b8215156101208301529b9a5050505050505050505050565b6000806040838503121561244957600080fd5b82359150602083013567ffffffffffffffff81111561246757600080fd5b8301601f8101851361247857600080fd5b6124878582356020840161211b565b9150509250929050565b600080604083850312156124a457600080fd5b6124ad8361208a565b946020939093013593505050565b634e487b7160e01b600052601160045260246000fd5b6000600182016124e3576124e36124bb565b5060010190565b600181811c908216806124fe57607f821691505b60208210810361251e57634e487b7160e01b600052602260045260246000fd5b50919050565b601f82111561256e57600081815260208120601f850160051c8101602086101561254b5750805b601f850160051c820191505b8181101561256a57828155600101612557565b5050505b505050565b815167ffffffffffffffff81111561258d5761258d612105565b6125a18161259b84546124ea565b84612524565b602080601f8311600181146125d657600084156125be5750858301515b600019600386901b1c1916600185901b17855561256a565b600085815260208120601f198616915b82811015612605578886015182559484019460019091019084016125e6565b50858210156126235787850151600019600388901b60f8161c191681555b5050505050600190811b01905550565b82815260406020820152600061264c6040830184612273565b949350505050565b602080825260169082015275119d5b991cc8185b1c9958591e481c995b19585cd95960521b604082015260600190565b808202811582820484141761269b5761269b6124bb565b92915050565b6000826126be57634e487b7160e01b600052601260045260246000fd5b500490565b8181038181111561269b5761269b6124bb565b8082018082111561269b5761269b6124bb56fea264697066735822122020c000d6b51ba2394bc220b8f61cb41aa99cad227496f96fa14b86d4cc23374464736f6c63430008140033",
  "linkReferences": {},
  "deployedLinkReferences": {}
}